:020000040000FA
:100000009728003803199228A80020088400211896
:100010008317A001A101A81B15280008A000A81C97
:100020009228840A0008A10092281A200005031DC6
:10003000A00A922800308A0028080739223E0318B7
:100040008A0A820001340234043408341034203423
:1000500040348034210820040319A00A8030201A7B
:10006000A1062019A106A018A106210DA00DA10D21
:100070009228A301A200FF30A207031CA307031CC0
:1000800092280330A100DF3047203B28A101E83E41
:10009000A000A109FC30031C5028A00703184D281C
:1000A000A0076400A10F4D2820185628A01C5A282C
:1000B00000005A280800A20001306628A20006307D
:1000C0006628A20004306628A2000530A800230894
:1000D0002102031D6D28220820020430031801307C
:1000E000031902302805031DFF309228A501A40141
:1000F0001030A600210DA40DA50D2208A40223088E
:10010000031C230FA50203188C282208A407230828
:100110000318230FA5070310A00DA10DA60B7A2825
:1001200020089228831303138312640008008316A7
:100130008701850183124608A0004708A1008A01B3
:100140002A202008C6002108C7004608A00047084A
:10015000A1000F30A200A3018A0176202408C80064
:100160002508C9008A11B6208A019B28A001A10197
:100170004908A30048088A0164208A11031DC42885
:100180008A113F278A11C32A0130A000A101490822
:10019000A30048088A0164208A11031DD3288A110C
:1001A000E2278A11C32A0230A000A1014908A30056
:1001B00048088A0164208A11031DE2288A119923C4
:1001C0008A11C32A0330A000A1014908A3004808EE
:1001D0008A0164208A11031DF1288A11CF238A1114
:1001E000C32A0430A000A1014908A30048088A01DD
:1001F00064208A11031D00298A11B2268A11C32A9C
:100200000530A000A1014908A30048088A01642024
:100210008A11031D0F298A11C4228A11C32A0630AC
:10022000A000A1014908A30048088A0164208A119E
:10023000031D1E298A15E0218A11C32A0730A00058
:10024000A1014908A30048088A0164208A11031DFE
:100250002D298A15D8228A11C32A0830A000A101AD
:100260004908A30048088A0164208A11031D3C291B
:100270008A1507218A11C32A0930A000A101490863
:10028000A30048088A0164208A11031D5F290130F8
:10029000E000E1016008A0006108A100A3010330B3
:1002A0008A015B208A11031D5D298A157C20E00AE2
:1002B0000319E10A8A11031D4A298A11C32A0A3047
:1002C000A000A1014908A30048088A0164208A11FE
:1002D000031D82290330D200D3015208A000530825
:1002E000A100A30114308A015B208A11031D80291B
:1002F0008A15EC24D20A0319D30A8A11031D6D2929
:100300008A11C32A0B30A000A1014908A3004808A4
:100310008A0164208A11031DEE298316A00A03199D
:10032000A10A20088312A000831621088312A100CD
:10033000A30103308A015E208A11031DA3298316BD
:10034000A001A1018312831621088A118312031DC3
:10035000D629831620088312A200023C8A11031CAE
:10036000D6290310220DA2078A11C621A000A20AD5
:100370008A11C621A100A20A8A11C6218A01012080
:100380002008DA002108DB008A11D62901308A0012
:100390002208CD3E03188A0A8200643400340034F7
:1003A0009634003400345034003400340130D4002A
:1003B000D5015408A0005508A100A30108308A0106
:1003C0005B208A11031DEC298A151325D40A031911
:1003D000D50A8A11031DD9298A11C32A0C30A0001D
:1003E000A1014908A30048088A0164208A11031D5D
:1003F000112A0130CA00CB014A08A0004B08A10015
:10040000A30102308A015B208A11031D0F2A8A157D
:10041000A025CA0A0319CB0A8A11031DFC298A11D7
:10042000C32A0D30A000A1014908A30048088A0191
:1004300064208A11031D6B2A831624088312A000EE
:10044000831625088312A1008A012A20200883161A
:10045000A400831221088316A50024088312A0009B
:10046000831625088312A1001030A200A3018A017F
:10047000762024088316A600831225088316A70079
:1004800004302607A80027080318013EA900013000
:10049000AA00AB01831283162A088312A0008316D8
:1004A0002B088312A100831629088312A300831648
:1004B000280883128A015B208A11031D692A8A1188
:1004C0004D238316AA0A0319AB0A8A118312031D4E
:1004D0004B2A8A11C32A0E30A000A1014908A300AB
:1004E00048088A0164208A11031DC32A8316240840
:1004F0008312A000831625088312A1008A012A20F6
:1005000020088316A400831221088316A50024085E
:100510008312A000831625088312A1001030A200C8
:10052000A3018A01762024088316A60083122508D9
:100530008316A70004302607A80027080318013EE9
:10054000A9000130AA00AB01831283162A08831286
:10055000A00083162B088312A1008316290883129A
:10056000A3008316280883128A015B208A11031DC9
:10057000C32A8A1173238316AA0A0319AB0A8A11A4
:100580008312031DA52A08001E30E600E701660855
:10059000A0006708A100A30132308A015B208A1104
:1005A000031D082B0230850087016708A300660839
:1005B0008A013A201030870085016708A300660889
:1005C0008A013A20023087006708A30066088A0182
:1005D0003A20053087006708A30066088A013A20A0
:1005E000283087006708A30066088A013A2087013F
:1005F000053085006708A30066088A013A200530A7
:10060000E6078A11031CC72AE70A8A11031DC72AB5
:100610003230E600E7016608A0006708A100A301E8
:1006200064308A015B208A11031D4C2B0230850047
:1006300087016708A30066088A013A201030870006
:1006400085016708A30066088A013A200230870006
:100650006708A30066088A013A200530870067080A
:10066000A30066088A013A20283087006708A300A3
:1006700066088A013A208701053085006708A300D3
:1006800066088A013A200A30E6078A11031C0B2B00
:10069000E70A8A11031D0B2B08006430EE00EF01FE
:1006A00003308700063085006F08A3006E088A01BA
:1006B0003A203830870085016F08A3006E088A0150
:1006C0003A2006308700033085006F08A3006E08CB
:1006D0008A013A203830870085016F08A3006E0830
:1006E0008A013A2008006430E800E90102308700FE
:1006F000053085006908A30068088A013A2038306F
:10070000870085016908A30068088A013A2005303E
:100710008700023085006908A30068088A013A2032
:100720003830870085016908A30068088A013A20EB
:100730000800CC01CD014C08A0004D08A100A30188
:1007400005308A015B208A11031DCC2B4D088A11CC
:10075000031DC42B4C08053C8A11031CC42B8A11B1
:10076000B7238316A200A30183128A11C42B03307E
:100770008A004C08BE3E03188A0A820001340834FD
:10078000053402340A3404348A157924CC0A031956
:10079000CD0A8A11031D9B2B8501870108006E304D
:1007A000D000D1015008A0005108A100A3010A30D7
:1007B0008A0161208A11031D002CFC01FD017C08C7
:1007C000A0007D08A100A30108308A015B208A11E6
:1007D000031DF22B8A151E24FC0A0319FD0A8A1137
:1007E000031DDF2B0A30D00200308A110318FC2BC6
:1007F000013E8A110318002CD1028A110318D22B52
:100800000130D600D7015608A0005708A100A30167
:1008100019308A015B208A11031D2C2C0A30D0006C
:10082000D101FC01FD017C08A0007D08A100A3010D
:1008300008308A015B208A11031D262C8A151E248C
:10084000FC0A0319FD0A8A11031D132CD60A031989
:10085000D70A8A11031D032C0A30D000D101500899
:10086000A0005108A100A3016E308A015B208A110B
:10087000031D582CFC01FD017C08A0007D08A1008F
:10088000A30108308A015B208A11031D4F2C8A15B1
:100890001E24FC0A0319FD0A8A11031D3C2C0A3090
:1008A000D0078A11031C2F2CD10A8A11031D2F2C6B
:1008B00008007C08A0007D08A1008A012A202008E9
:1008C000FC002108FD007C08A0007D08A100033089
:1008D000A200A3018A01762024088316AC008312AB
:1008E00025088316AD008312A001A10183162D08EF
:1008F0008312A30083162C0883128A0164208A11B4
:10090000031D3D2D83162D088A118312031DA12C72
:1009100083162C08023C8A118312031CA12C8A1115
:100920009524B800B9018A11A12C04308A008316DD
:100930002C0883129E3E03188A0A82000034003479
:10094000003483162D088A118312031DC02C8316D0
:100950002C08023C8A118312031CC02C8A11B42477
:10096000BA00BB018A11C02C04308A0083162C08FF
:100970008312BD3E03188A0A82000034003400341A
:1009800083162D088A118312031DDC2C83162C0874
:10099000FF3C8A118312031CDC2C8A11D324BC0077
:1009A000BD018A11DC2C04308A0083162C088312C6
:1009B000DC3E03188A0A820083162D088A118312EE
:1009C000031DFB2C83162C08023C8A118312031C86
:1009D000FB2C8A11EF24BE00BF018A11FB2C0430CE
:1009E0008A0083162C088312F83E03188A0A8200B4
:1009F00000340834203483162D088A118312031D15
:100A00001A2D83162C08023C8A118312031C1A2DFE
:100A10008A110E25C000C1018A111A2D05308A00E5
:100A200083162C088312173E03188A0A82000834A2
:100A30002034003483162D088A118312031D392DAA
:100A400083162C08023C8A118312031C392D8A114B
:100A50002D25C200C3018A11392D05308A00831665
:100A60002C088312363E03188A0A820000340834A8
:100A700028348A158A238A11B12E0130A000A101E1
:100A800083162D088312A30083162C0883128A0173
:100A900064208A11031DF82D83162D088A118312F4
:100AA000031D682D83162C08FF3C8A118312031C3A
:100AB000682D8A115F25B800B9018A11682D0530AB
:100AC0008A0083162C088312683E03188A0A820063
:100AD00083162D088A118312031D842D83162C087A
:100AE000FF3C8A118312031C842D8A117B25BA00D6
:100AF000BB018A11842D05308A0083162C088312CD
:100B0000843E03188A0A820083162D088A118312F4
:100B1000031DA02D83162C08FF3C8A118312031C91
:100B2000A02D8A119725BC00BD018A11A02D05308A
:100B30008A0083162C088312A03E03188A0A8200BA
:100B400083162D088A118312031DBC2D83162C08D1
:100B5000FF3C8A118312031CBC2D8A11B325BE00F1
:100B6000BF018A11BC2D05308A0083162C08831220
:100B7000BC3E03188A0A820083162D088A1183124C
:100B8000031DD82D83162C08FF3C8A118312031CE9
:100B9000D82D8A11CF25C000C1018A11D82D05306A
:100BA0008A0083162C088312D83E03188A0A820012
:100BB00083162D088A118312031DF42D83162C0829
:100BC000FF3C8A118312031CF42D8A11EB25C2000D
:100BD000C3018A11F42D05308A0083162C08831274
:100BE000F43E03188A0A82008A158A238A11B12EDC
:100BF0000230A000A10183162D088312A3008316E2
:100C00002C0883128A0164208A11031DB12E8316D9
:100C10002D088A118312031D232E83162C08FF3CF6
:100C20008A118312031C232E8A111A26B800B901D7
:100C30008A11232E06308A0083162C088312233E45
:100C400003188A0A820083162D088A118312031D55
:100C50003F2E83162C08FF3C8A118312031C3F2E63
:100C60008A113626BA00BB018A113F2E06308A004F
:100C700083162C0883123F3E03188A0A82008316CB
:100C80002D088A118312031D5B2E83162C08FF3C4E
:100C90008A118312031C5B2E8A115226BC00BD01EF
:100CA0008A115B2E06308A0083162C0883125B3E65
:100CB00003188A0A820083162D088A118312031DE5
:100CC000772E83162C08FF3C8A118312031C772E83
:100CD0008A116E26BE00BF018A11772E06308A0067
:100CE00083162C088312773E03188A0A8200831623
:100CF0002D088A118312031D932E83162C08FF3CA6
:100D00008A118312031C932E8A118A26C000C10106
:100D10008A11932E06308A0083162C088312933E84
:100D200003188A0A820083162D088A118312031D74
:100D3000AF2E83162C08FF3C8A118312031CAF2EA2
:100D40008A11A626C200C3018A11AF2E06308A007E
:100D500083162C088312AF3E03188A0A82008A1574
:100D60008A23080083160130AC00AD01831283167C
:100D70002C088312A00083162D088312A100A30162
:100D800019308A015B208A11031D3E2F8A15C52365
:100D90000130FC00FD017C08A0007D08A1000330AB
:100DA000A300E8308A015B208A11031DFE2E76081D
:100DB00085007A0887007C08E83CE2007D08031C77
:100DC000013E033CE3006308A10062088A0147205A
:100DD00078088500740887007D08A1007C088A01D6
:100DE0004720073085003F3087000530FC078A1117
:100DF000031CCB2EFD0A8A11031DCB2E8A15E92375
:100E00000130FC00FD017C08A0007D08A10003303A
:100E1000A300E8308A015B208A11031D362F780871
:100E20008500740887007C08E83CE2007D08031C0C
:100E3000013E033CE3006308A10062088A014720E9
:100E4000760885007A0887007D08A1007C088A0161
:100E50004720073085003F3087000530FC078A11A6
:100E6000031C032FFD0A8A11031D032F8316AC0AEE
:100E70000319AD0A8A118312031DB72E080007302B
:100E8000BC00BD013F30C200C3016430D800D901AD
:100E90000130E000E1016008A0006108A100A301A9
:100EA00002308A015B208A11031DE12FC401C501B4
:100EB0004408A0004508A100A30105308A015B2079
:100EC0008A11031DDB2F45088A11031D7F2F44085B
:100ED000053C8A11031C7F2F8A117227B800B901C3
:100EE0008A117F2F07308A004408793E03188A0A46
:100EF00082000034013402340334043405344508DC
:100F00008A11031D9B2F4408053C8A11031C9B2F4B
:100F10008A118E27BA00BB018A119B2F07308A00E5
:100F20004408953E03188A0A8200013402340334CF
:100F300004340534063445088A11031DB72F4408CC
:100F4000053C8A11031CB72F8A11AA27BE00BF01D6
:100F50008A11B72F07308A004408B13E03188A0A65
:100F6000820000340134023403340434053445086B
:100F70008A11031DD32F4408053C8A11031CD32F6B
:100F80008A11C627C000C1018A11D32F07308A00F9
:100F90004408CD3E03188A0A820001340234033427
:100FA0000434053406348A158A23C40A0319C50A91
:100FB0008A11031D582FE00A0319E10A8A11031D43
:100FC0004B2F08000730BC00BD013F30C200C301F9
:100FD000D801D9010130E000E1016008A0006108FA
:100FE000A100A30105308A015B208A15031D7B281F
:100FF000C401C5014408A0004508A100A3010330B5
:101000008A015B208A15031D752845088A15031D72
:101010001F284408033C8A15031C1F288A15142026
:10102000B800B9018A151F2808308A0044081B3E01
:1010300003188A0A8200003401340234043445085B
:101040008A15031D39284408033C8A15031C3928D6
:101050008A152E20BA00BB018A15392808308A006B
:101060004408353E03188A0A8200013402340434ED
:10107000003445088A15031D53284408033C8A158B
:10108000031C53288A154820BE00BF018A15532827
:1010900008308A0044084F3E03188A0A8200383418
:1010A00014341234113445088A15031D6D28440880
:1010B000033C8A15031C6D288A156220C000C101FB
:1010C0008A156D2808308A004408693E03188A0A88
:1010D000820014341234113438348A158A23C40A35
:1010E0000319C50A8A11031DFA2FE00A0319E10A40
:1010F0008A11031DED2F08000730BC00BD013F30F1
:10110000C200C3010130D800D901C401C50144089F
:10111000A0004508A100A30104308A015B208A15C4
:10112000031D062945088A15031DAD284408043C03
:101130008A15031CAD288A15A120B800B9018A15AB
:10114000AD2808308A004408A83E03188A0A8200A5
:101150000034003404340234013445088A15031D78
:10116000C8284408043C8A15031CC8288A15BC20DA
:10117000BE00BF018A15C82808308A004408C33E53
:1011800003188A0A820004342234113408340034EB
:1011900045088A15031DE3284408043C8A15031CEE
:1011A000E3288A15D720BA00BB018A15E328083046
:1011B0008A004408DE3E03188A0A820000340434A0
:1011C00002340134003445088A15031DFE28440802
:1011D000043C8A15031CFE288A15F220C000C101B8
:1011E0008A15FE2808308A004408F93E03188A0A46
:1011F0008200223411340834003404348A158A23DE
:10120000C40A0319C50A8A15031D8728080064301B
:10121000D800D901C401C5014408A0004508A100B7
:10122000A30109308A015B208A15031DDF294508C7
:101230008A15031D37294408093C8A15031C3729E0
:101240008A152621BC00BD018A15372909308A007C
:1012500044082D3E03188A0A82000034003400340A
:1012600000340034003400340034043406344508BB
:101270008A15031D57294408093C8A15031C572960
:101280008A154621B800B9018A15572909308A0004
:1012900044084D3E03188A0A8200003400340034AA
:1012A000003400340034003404340234013445087E
:1012B0008A15031D77294408093C8A15031C7729E0
:1012C0008A156621BA00BB018A15772909308A0080
:1012D00044086D3E03188A0A82000034003400344A
:1012E000003400340034043402340134003445083E
:1012F0008A15031D97294408093C8A15031C972960
:101300008A158621C200C3018A15972909308A00EF
:1013100044088D3E03188A0A8200003404340634DF
:1013200007340F341F343F343F343F343F344508D3
:101330008A15031DB7294408093C8A15031CB729DF
:101340008A15A621BE00BF018A15B72909308A0077
:101350004408AD3E03188A0A820000340434023483
:10136000013408341034203400340034003445088B
:101370008A15031DD7294408093C8A15031CD7295F
:101380008A15C621C000C1018A15D72909308A00F3
:101390004408CD3E03188A0A820004340234013422
:1013A00008341034203400340034003400348A15FA
:1013B0008A23C40A0319C50A8A15031D0C290800CB
:1013C000BC01BD011030C200C3016430D800D90196
:1013D0000130E000E1016008A0006108A100A30164
:1013E0000A308A015B208A15031D892AC401C501C0
:1013F0004408A0004508A100A30107308A015B2032
:101400008A15031D832A45088A15031D212A4408CD
:10141000073C8A15031C212A8A151222B800B9013B
:101420008A15212A0A308A004408193E03188A0ABC
:1014300082000734063404340134023404340134A5
:10144000033445088A15031D3F2A4408073C8A15C2
:10145000031C3F2A8A153022BA00BB018A153F2A95
:101460000A308A004408373E03188A0A820006348C
:10147000043401340234043401340334073445089D
:101480008A15031D5D2A4408073C8A15031C5D2A42
:101490008A154E22BE00BF018A155D2A0A308A00D5
:1014A0004408553E03188A0A8200023421342C3441
:1014B000263407340B3429340C3445088A15031DAF
:1014C0007B2A4408073C8A15031C7B2A8A156C2258
:1014D000C000C1018A157B2A0A308A004408733E85
:1014E00003188A0A820021342C34263407340B3442
:1014F00029340C3402348A158A23C40A0319C50A14
:101500008A15031DF829E00A0319E10A8A15031D4B
:10151000EB2908009030EC000130ED006C08A000D1
:101520006D08A100A301C8308A0161208A15031D3E
:10153000A72A3230EC0200308A150318A32A013E94
:101540008A150318A72AED028A1503188E2AC830B7
:10155000EC00ED016C08A0006D08A100A3016E3045
:101560008A0161208A15031DC32A0A30EC0200306B
:101570008A150318BF2A013E8A150318C32AED02F3
:101580008A150318AA2A0130CC00CD014C08A0000E
:101590004D08A100A30109308A015B208A15031DB3
:1015A000D72ACC0A0319CD0A8A15031DC62A0800BA
:1015B0000730BC00BD013F30C200C301D801D901D2
:1015C000C401C5014408A0004508A100A3010E30D4
:1015D0008A015B208A15031D892B45088A15031D86
:1015E000122B44080E3C8A15031C122B8A15FC2270
:1015F000B800B9018A15122B0B308A004408033E4B
:1016000003188A0A82000034073406340534033490
:101610000734063404340034003400340034003419
:101620000034003445088A15031D372B44080E3C4E
:101630008A15031C372B8A152123BA00BB018A1592
:10164000372B0B308A004408283E03188A0A820090
:1016500007340634053403340734063404340034C4
:1016600000340034003400340034003400344508C1
:101670008A15031D5C2B44080E3C8A15031C5C2B49
:101680008A154623BE00BF018A155C2B0B308A00E9
:1016900044084D3E03188A0A82000034003408349E
:1016A0001034203400340834183438341C342A34CC
:1016B000313438341C340E3445088A15031D812B0F
:1016C00044080E3C8A15031C812B8A156B23C0002D
:1016D000C1018A15812B0B308A004408723E031821
:1016E0008A0A82000034083410342034003408346C
:1016F000183438341C342A34313438341C340E3421
:1017000007348A158A23C40A0319C50A8A15031DDA
:10171000E22A0800FC01FD017C08A0007D08A10070
:101720000330A300E8308A015B208A15031DC42B17
:10173000380885003E0887007C08E83CE2007D0808
:10174000031C013E033CE3006308A10062088A0118
:1017500047203A088500400887007D08A1007C08E2
:101760008A0147203C088500420887005908A100EB
:1017700058088A0147200530FC078A15031C8C2B6A
:10178000FD0A8A15031D8C2B08007008A000710843
:10179000A1008A012A202008F0002108F100700829
:1017A000A0007108A1001030A2000430A3008A013B
:1017B0007620F4002108F5007408A0007508A10047
:1017C0000930A200A3018A017620F8002108F9005F
:1017D00008007208A0007308A1008A012A202008CE
:1017E000F2002108F3007208A0007308A100103075
:1017F000A2000430A3008A017620F6002108F70039
:101800007208A0007308A1000930A200A3018A0198
:101810007620FA002108FB000800073085007F30A1
:1018200087006B08A3006A088A013A2085018701B6
:101830006B08A3006A088A013A2008000130CC0036
:10184000CD014C08A0004D08A1005108A30050088C
:101850008A015B208A15031D782C7D088A15031DDB
:101860004B2C7C08083C8A15031C4B2C8A153B2406
:1018700085008A154B2C0C308A007C08423E0318E8
:101880008A0A8200013401340534073407340634EF
:101890000634023400347D088A15031D692C7C0847
:1018A000083C8A15031C692C8A15592487008A155F
:1018B000692C0C308A007C08603E03188A0A82007A
:1018C00004342C342D342F343F343B34133412344D
:1018D00010340330A100E8308A014720073085002A
:1018E0003F308700CC0A0319CD0A8A15031D212C2D
:1018F0000800E830FC000330FD007C08A0007D08F3
:10190000A100A30101308A0161208A15031DB32CB7
:10191000073085002F3087007D08A1007C088A01F0
:1019200047208501103087007C08E83CE2007D08F4
:10193000031C013E033CE3006308A10062088A0126
:101940004720831622088312FC02831623088A1577
:1019500083120318AF2C013E8A150318B32CFD0225
:101960008A1503187D2C0130FC00FD017C08A000C5
:101970007D08A1000330A300E8308A015B208A15AE
:10198000031DEB2C073085002F3087007D08A10058
:101990007C088A0147208501103087007C08E83CDC
:1019A000E2007D08031C013E033CE3006308A10044
:1019B00062088A014720831622088312FC078316D7
:1019C00023080318013E8A1583120318EB2CFD0728
:1019D0008A15031CB62C08004130E400E5010130F3
:1019E0008700043085006508A30064088A013A2056
:1019F00002308700023085006508A30064088A0170
:101A00003A2004308700013085006508A30064088F
:101A10008A013A202830870085016508A300640800
:101A20008A013A20080024308700043085005B08D2
:101A3000A3005A088A013A2002308700043085004A
:101A40005B08A3005A088A013A201130870004304D
:101A500085005B08A3005A088A013A2008308700F5
:101A6000043085005B08A3005A088A013A208701E8
:101A7000073085005B08A3005A088A013A2020300D
:101A80008700013085005B08A3005A088A013A20CC
:101A900014308700013085005B08A3005A088A01D2
:101AA0003A2002308700013085005B08A3005A0805
:101AB0008A013A2009308700013085005B08A300C5
:101AC0005A088A013A2001308700023085005B08FD
:101AD000A3005A088A013A2011308700043085009B
:101AE0005B08A3005A088A013A202130870085014B
:101AF0005B08A3005A088A013A2007308700850155
:101B00005B08A3005A088A013A200C30870085013F
:101B10005B08A3005A088A013A201430870001307C
:101B200085005B08A3005A088A013A200430870028
:101B3000023085005B08A3005A088A013A20080099
:101B40004630DC00DD015D08A3005C088A013A2014
:101B50001030870085015D08A3005C088A013A20E7
:101B600005308700053085005D08A3005C088A0108
:101B70003A202A308700023085005D08A3005C0807
:101B80008A013A201030870085015D08A3005C08B7
:101B90008A013A2005308700053085005D08A300E2
:101BA0005C088A013A202A308700023085005D08EF
:101BB000A3005C088A013A201030870085015D0887
:101BC000A3005C088A013A200530870005308500B3
:101BD0005D08A3005C088A013A202A3087000230A1
:101BE00085005D08A3005C088A013A201030870058
:101BF00085015D08A3005C088A013A200530870052
:101C0000053085005D08A3005C088A013A202A306F
:101C10008700023085005D08A3005C088A013A2035
:101C20001030870085010330A30020308A013A205C
:101C30002A308700023085005D08A3005C088A0115
:101C40003A201030870085015D08A3005C088A01F6
:101C50003A2005308700053085005D08A3005C0848
:101C60008A013A202A308700023085005D08A300EF
:101C70005C088A013A201030870085015D08A300C6
:101C80005C088A013A2005308700053085005D0830
:101C9000A3005C088A013A202A30870002308500C0
:101CA0005D08A3005C088A013A2010308700850196
:101CB0005D08A3005C088A013A20053087000530E2
:101CC00085005D08A3005C088A013A202A3087005D
:101CD000023085005D08A3005C088A013A201030BC
:101CE000870085015D08A3005C088A013A20053061
:101CF0008700053085005D08A3005C088A013A2052
:101D00002A308700023085000330A30020308A018A
:101D10003A2005308700053085005D08A3005C0887
:101D20008A013A202A308700023085005D08A3002E
:101D30005C088A013A201030870085015D08A30005
:101D40005C088A013A2005308700053085005D086F
:101D5000A3005C088A013A202A30870002308500FF
:101D60005D08A3005C088A013A20103087008501D5
:101D70005D08A3005C088A013A2005308700053021
:101D800085005D08A3005C088A013A202A3087009C
:101D9000023085005D08A3005C088A013A201030FB
:101DA000870085015D08A3005C088A013A200530A0
:101DB0008700053085005D08A3005C088A013A2091
:101DC0002A308700023085005D08A3005C088A0184
:101DD0003A201030870085015D08A3005C088A0165
:101DE0003A2005308700053085000330A3002030FD
:061DF0008A013A20080000
:02400E00FC3F75
:00000001FF
