:020000040000FA
:100000002828A301A200FF30A207031CA307031C9A
:1000100023280330A100DF300F200328A101E83E90
:10002000A000A109FC30031C1828A00703181528FC
:10003000A0076400A10F152820181E28A01C222844
:1000400000002228080083130313831264000800B1
:1000500083168701850183128A1136208A117C203C
:100060008A1199208A11AE208A012C286430C000A0
:10007000C10185018701043087004108A3004008C1
:100080008A010220023087004108A30040088A014B
:100090000220013087004108A30040088A010220A5
:1000A000203087004108A30040088A010220103058
:1000B00087004108A30040088A0102200830870019
:1000C0004108A30040088A0102200430850087010E
:1000D0004108A30040088A0102200230850041083F
:1000E000A30040088A010220013085004108A300D6
:1000F00040088A01022008009030C2000130C3008D
:100100000730870085014308A30042088A010220C6
:100110008501383087004308A30042088A01022085
:100120000730850087014308A30042088A010220A6
:1001300008009030C4000130C500073085003F3012
:1001400087004508A30044088A0102208501870131
:100150004508A30044088A01022008002C30C8008A
:100160000130C9001030870085014908A300480804
:100170008A01022005308500153087004908A30058
:1001800048088A010220023085002A308700490889
:0A019000A30048088A0102200800BD
:02400E00FC3F75
:00000001FF
