:020000040000FA
:10000000AD2800380319A828A8002008840021186A
:100010008317A001A101A81B15280008A000A81C97
:10002000A828840A0008A100A8281A200005031D9A
:10003000A00AA82800308A0028080739223E0318A1
:100040008A0A820001340234043408341034203423
:1000500040348034210820040319A00A8030201A7B
:10006000A1062019A106A018A106210DA00DA10D21
:10007000A828A301A200FF30A207031CA307031CAA
:10008000A8280330A100DF3047203B28A101E83E2B
:10009000A000A109FC30031C5028A00703184D281C
:1000A000A0076400A10F4D2820185628A01C5A282C
:1000B00000005A280800A20001306628A20006307D
:1000C0006628A20004306628A2000530A800230894
:1000D0002102031D6D28220820020430031801307C
:1000E000031902302805031DFF30A828A501A4012B
:1000F0001030A600210DA40DA50D2208A40223088E
:10010000031C230FA50203188C282208A407230828
:100110000318230FA5070310A00DA10DA60B7A2825
:100120002008A8281030A800A101A001A70CA60C47
:10013000031CA0282208A00723080318230FA107E7
:10014000A10CA00CA50CA40CA80B96282408A82888
:10015000831303138312640008008316870185014B
:1001600083123808A0003908A1008A012A2020083B
:10017000B8002108B9003808A0003908A1000630ED
:10018000A200A3018A0176202408BA002508BB003A
:1001900001303A07BC003B080318013EBD000130A6
:1001A000A000A1013D08A3003C088A0164208A1137
:1001B000031D5529EE0A0319EF0A6E08A0006F0807
:1001C000A100A30105308A015E208A11031DEA28DF
:1001D000EE01EF016F088A11031D1F296E08A200AE
:1001E000043C8A11031C1F290310220DA2078A1147
:1001F0000921A000A20A8A110921A100A20A8A11DC
:1002000009218A0101202008CE002108CF008A118F
:100210001F2901308A002208103E03188A0A820032
:100220005A3400340034FA34003400346434003476
:100230000034323400340034963400340034700812
:10024000A0007108A1008A012A202008F0002108DE
:10025000F1007008A0007108A1000A30A200A301FB
:100260008A0176202408F2002508F3000130720785
:10027000F40073080318013EF500C001C1014008F5
:10028000A0004108A1007508A30074088A015B2042
:100290008A11031D53298A11CA22C00A0319C10AEF
:1002A0008A11031D3F298A11C82A0230A000A1012A
:1002B0003D08A3003C088A0164208A11031DC0295F
:1002C000EA0A0319EB0A6A08A0006B08A100A3015F
:1002D00005308A015E208A11031D7029EA01EB01B5
:1002E0006B088A11031DA8296A08A200053C8A111F
:1002F000031CA8290310220DA2078A118F21A00038
:10030000A20A8A118F21A100A20A8A118F218A01D3
:1003100001202008D2002108D3008A11A829013029
:100320008A002208963E03188A0A8200503400345C
:100330000034C83400340034783400340034963447
:100340000034003446340034003432340034003495
:100350000130C800C9014808A0004908A100A30154
:1003600005308A015B208A11031DBE298A110D23E5
:10037000C80A0319C90A8A11031DAB298A11C82AA0
:100380000330A000A1013D08A3003C088A016420BD
:100390008A11031D472AF20A0319F30A7208A00002
:1003A0007308A100A30105308A015E208A11031D94
:1003B000DB29F201F30173088A11031D102A720868
:1003C000A200043C8A11031C102A0310220DA2076C
:1003D0008A11FA21A000A20A8A11FA21A100A20A18
:1003E0008A11FA218A0101202008D4002108D500B1
:1003F0008A11102A02308A002208013E03188A0A54
:1004000082005A3400340034FA3400340034643446
:100410000034003432340034003496340034003474
:100420007608A0007708A1008A012A202008F6009B
:100430002108F7007608A0007708A1000A30A20082
:10044000A3018A0176202408F8002508F90001306C
:100450007807FA0079080318013EFB000130CA0052
:10046000CB014A08A0004B08A1007B08A3007A0832
:100470008A015B208A11031D452A8A112623CA0A94
:100480000319CB0A8A11031D312A8A11C82A0430A4
:10049000A000A1013D08A3003C088A0164208A1144
:1004A000031DA72A9030D8000130D9005808A000B9
:1004B0005908A100A30196308A0161208A11031D09
:1004C000712A8A1137233230D80200308A1103187A
:1004D0006D2A013E8A110318712AD9028A11031864
:1004E000562A9630D800D9015808A0005908A10012
:1004F000A3015A308A0161208A11031D8F2A8A11B3
:1005000037230A30D80200308A1103188B2A013EA3
:100510008A1103188F2AD9028A110318742A01300C
:10052000C400C5014408A0004508A100A30107308C
:100530008A015B208A11031DA52A8A113723C40A68
:100540000319C50A8A11031D922A8A11C82A053087
:10055000A000A1013D08A3003C088A0164208A1183
:10056000031DC82A0130C800C9014808A000490875
:10057000A100A30104308A015B208A11031DC82A4F
:100580008A115223C80A0319C90A8A11031DB52A00
:100590008A01B12885018701043087004F08A30034
:1005A0004E088A013A20023087004F08A3004E0807
:1005B0008A013A20013087004F08A3004E088A01C3
:1005C0003A20203087004F08A3004E088A013A20C5
:1005D000103087004F08A3004E088A013A200830E7
:1005E00087004F08A3004E088A013A200430850096
:1005F00087014F08A3004E088A013A200230850087
:100600004F08A3004E088A013A20013085004F08A8
:10061000A3004E088A013A200800073087008501B0
:100620005308A30052088A013A2085013830870018
:100630005308A30052088A013A2007308500870139
:100640005308A30052088A013A20080007308500A9
:100650003F3087005508A30054088A013A208501DD
:1006600087015508A30054088A013A200800103079
:10067000870085015908A30058088A013A200530EF
:100680008500153087005908A30058088A013A20D0
:10069000023085002A3087005908A30058088A01D3
:1006A0003A2008006008A0006108A1008A012A2001
:1006B0002008E0002108E1006008A0006108A10016
:1006C0001030A2000430A3008A017620E200210845
:1006D000E3000A30A600A7016208A2006308A30095
:1006E0008A019220D0002508D10014305007E40080
:1006F00051080318013EE5006208A0006308A1004C
:100700000930A200A3018A017620E6002108E70053
:100710000A30A600A7016208A2006308A3008A01AC
:100720009220E8002508E900660885006208870035
:100730006508A30064088A013A20073085003F302D
:0E07400087006908A30068088A013A200800B3
:02400E00FC3F75
:00000001FF
