:020000040000FA
:100000006928003803196428A800200884002118F2
:100010008317A001A101A81B15280008A000A81C97
:100020006428840A0008A10064281A200005031D22
:10003000A00A642800308A0028080739223E0318E5
:100040008A0A820001340234043408341034203423
:1000500040348034A301A200FF30A207031CA30791
:10006000031C64280330A100DF3038202C28A101B4
:10007000E83EA000A109FC30031C4128A00703189A
:100080003E28A0076400A10F3E2820184728A01C86
:100090004B2800004B280800A20001305428A20081
:1000A00004305428A2000530A80023082102031DB3
:1000B0005B282208200204300318013003190230A3
:1000C0002805031DFF306428831303138312640083
:1000D00008008316870185018312BA01BB013A0823
:1000E000A0003B08A100A30113308A014C208A1113
:1000F000031DA9293B088A11031DDC283A08A20028
:10010000133C8A11031CDC280310220DA2078A115C
:100110009920A000A20A8A119920A100A20A8A119E
:1001200099208A0101202008BE002108BF008A1101
:10013000DC2800308A002208A03E03188A0A8200C8
:100140000134003400340234003400340334003409
:1001500000340434003400340234003400340334F6
:1001600000340034043400340034013400340034EA
:1001700004340034003403340034003402340034D6
:1001800000340134003400340334003400340134CA
:1001900000340034043400340034033400340034B8
:1001A00002340034003404340034003401340034A8
:1001B00000340334003400340130A000A1013F08B2
:1001C000A3003E088A0152208A11031DFF28013036
:1001D000B800B9013808A0003908A100A301033014
:1001E0008A014C208A11031DFD288A11AB21B80A0F
:1001F0000319B90A8A11031DEA288A11A3290230BA
:10020000A000A1013F08A3003E088A0152208A11E4
:10021000031D22290130C000C1014008A00041088F
:10022000A100A30103308A014C208A11031D20295B
:100230008A11F121C00A0319C10A8A11031D0D296F
:100240008A11A3290330A000A1013F08A3003E08A2
:100250008A0152208A11031D45290130C200C301C1
:100260004208A0004308A100A30104308A014C20E9
:100270008A11031D43298A110E22C20A0319C30AD7
:100280008A11031D30298A11A3290430A000A1017D
:100290003F08A3003E088A0152208A11031DA329AA
:1002A0009030CC000130CD004C08A0004D08A100DA
:1002B000A30196308A014F208A11031D6F298A11EC
:1002C00023223230CC0200308A1103186B29013E00
:1002D0008A1103186F29CD028A1103185429963008
:1002E000CC00CD014C08A0004D08A100A3015A305C
:1002F0008A014F208A11031D8D298A1123220A3079
:10030000CC0200308A1103188929013E8A11031892
:100310008D29CD028A11031872290130BC00BD015C
:100320003C08A0003D08A100A30107308A014C2031
:100330008A11031DA3298A112322BC0A0319BD0AAD
:100340008A11031D9029BA0A0319BB0A8A11031DD9
:100350006F288A016D286430C400C50185018701BA
:10036000043087004508A30044088A012B2002308E
:1003700087004508A30044088A012B20013087002C
:100380004508A30044088A012B2020308700450837
:10039000A30044088A012B20103087004508A300E1
:1003A00044088A012B20083087004508A300440830
:1003B0008A012B200430850087014508A3004408EA
:1003C0008A012B20023085004508A30044088A01D9
:1003D0002B20013085004508A30044088A012B200A
:1003E00008009030C6000130C70007308700850143
:1003F0004708A30046088A012B2085013830870072
:100400004708A30046088A012B2007308500870192
:100410004708A30046088A012B2008009030C80036
:100420000130C900073085003F3087004908A3002C
:1004300048088A012B20850187014908A300480844
:100440008A012B2008001030870085014D08A30089
:100450004C088A012B2005308500153087004D0897
:10046000A3004C088A012B20023085002A30870027
:0C0470004D08A3004C088A012B20080056
:02400E00FC3F75
:00000001FF
