:020000040000FA
:10000000AD2800380319A828A8002008840021186A
:100010008317A001A101A81B15280008A000A81C97
:10002000A828840A0008A100A8281A200005031D9A
:10003000A00AA82800308A0028080739223E0318A1
:100040008A0A820001340234043408341034203423
:1000500040348034210820040319A00A8030201A7B
:10006000A1062019A106A018A106210DA00DA10D21
:10007000A828A301A200FF30A207031CA307031CAA
:10008000A8280330A100DF3047203B28A101E83E2B
:10009000A000A109FC30031C5028A00703184D281C
:1000A000A0076400A10F4D2820185628A01C5A282C
:1000B00000005A280800A20001306628A20006307D
:1000C0006628A20004306628A2000530A800230894
:1000D0002102031D6D28220820020430031801307C
:1000E000031902302805031DFF30A828A501A4012B
:1000F0001030A600210DA40DA50D2208A40223088E
:10010000031C230FA50203188C282208A407230828
:100110000318230FA5070310A00DA10DA60B7A2825
:100120002008A8281030A800A101A001A70CA60C47
:10013000031CA0282208A00723080318230FA107E7
:10014000A10CA00CA50CA40CA80B96282408A82888
:10015000831303138312640008008316870185014B
:1001600083125008A0005108A1008A012A2020080B
:10017000D0002108D1005008A0005108A1000D3086
:10018000A200A3018A0176202408D2002508D3000A
:1001900001305207D40053080318013ED500013046
:1001A000A000A1015508A30054088A0164208A1107
:1001B000031D71298316C20A0319C30A4208831258
:1001C000A000831643088312A100A30105308A0111
:1001D0005E208A11031DF0288316C201C301831219
:1001E000831643088A118312031D292983164208A6
:1001F0008312A200043C8A11031C29290310220D3A
:10020000A2078A111321A000A20A8A111321A100BA
:10021000A20A8A1113218A0101202008EE00210878
:10022000EF008A11292901308A0022081A3E03189A
:100230008A0A82005A3400340034FA34003400341C
:1002400064340034003432340034003496340034E2
:100250000034831644088312A000831645088312D5
:10026000A1008A012A2020088316C40083122108D5
:100270008316C50044088312A00083164508831224
:10028000A1000A30A200A3018A0176202408831667
:10029000C600831225088316C70001304607C80030
:1002A00047080318013EC9008312D801D901580834
:1002B000A0005908A100831649088312A3008316E1
:1002C000480883128A015B208A11031D6F298A1155
:1002D000D825D80A0319D90A8A11031D57298A116A
:1002E000D62D0230A000A1015508A30054088A01B0
:1002F00064208A11031DE6298316BC0A0319BD0A6E
:100300003C088312A00083163D088312A100A301BC
:1003100005308A015E208A11031D92298316BC01D3
:10032000BD01831283163D088A118312031DCE2955
:1003300083163C088312A200053C8A11031CCE29B7
:100340000310220DA2078A11B521A000A20A8A116A
:10035000B521A100A20A8A11B5218A010120200835
:10036000F2002108F3008A11CE2901308A00220808
:10037000BC3E03188A0A8200503400340034C8346A
:1003800000340034783400340034963400340034BF
:100390004634003400343234003400340130E0009C
:1003A000E1016008A0006108A100A30105308A01F5
:1003B0005B208A11031DE4298A111B26E00A031918
:1003C000E10A8A11031DD1298A11D62D0330A0001C
:1003D000A1015508A30054088A0164208A11031D55
:1003E000892A8316C60A0319C70A46088312A00081
:1003F000831647088312A100A30105308A015E20FD
:100400008A11031D072A8316C601C70183128316AA
:1004100047088A118312031D402A83164608831257
:10042000A200043C8A11031C402A0310220DA207DB
:100430008A112A22A000A20A8A112A22A100A20A55
:100440008A112A228A0101202008F4002108F500DF
:100450008A11402A02308A002208313E03188A0A93
:1004600082005A3400340034FA34003400346434E6
:100470000034003432340034003496340034003414
:1004800083164A088312A00083164B088312A1002A
:100490008A012A2020088316CA00831221088316A5
:1004A000CB004A088312A00083164B088312A100D8
:1004B0000A30A200A3018A01762024088316CC000A
:1004C000831225088316CD0001304C07CE004D085D
:1004D0000318013ECF0083120130E200E3016208FD
:1004E000A0006308A10083164F088312A30083169F
:1004F0004E0883128A015B208A11031D872A8A1104
:100500003426E20A0319E30A8A11031D6F2A8A11AD
:10051000D62D0430A000A1015508A30054088A017B
:1005200064208A11031DE92A9030F8000130F90097
:100530007808A0007908A100A30196308A01612003
:100540008A11031DB32A8A1145263230F802003081
:100550008A110318AF2A013E8A110318B32AF9023F
:100560008A110318982A9630F800F9017808A0003B
:100570007908A100A3015A308A0161208A11031D64
:10058000D12A8A1145260A30F80200308A11031850
:10059000CD2A013E8A110318D12AF9028A110318C3
:1005A000B62A0130DC00DD015C08A0005D08A10076
:1005B000A30107308A015B208A11031DE72A8A11F3
:1005C0004526DC0A0319DD0A8A11031DD42A8A1183
:1005D000D62D0530A000A1015508A30054088A01BA
:1005E00064208A11031D0C2B0130E000E10160083A
:1005F000A0006108A100A30104308A015B208A11D8
:10060000031D0A2B8A116026E00A0319E10A8A11E8
:10061000031DF72A8A11D62D0630A000A101550826
:10062000A30054088A0164208A11031D812B8316BC
:10063000D00A0319D10A50088312A000831651086A
:100640008312A100A30105308A015E208A11031DD7
:100650002D2B8316D001D1018312831651088A11E4
:100660008312031D692B831650088312A200053CD8
:100670008A11031C692B0310220DA2078A11502333
:10068000A000A20A8A115023A100A20A8A115023B5
:100690008A0101202008FA002108FB008A11692B39
:1006A00003308A002208573E03188A0A8200503419
:1006B00000340034783400340034643400340034BE
:1006C0003C340034003446340034003441340034C7
:1006D00000340130E200E3016208A0006308A100D9
:1006E000A30105308A015B208A11031D7F2B8A112B
:1006F000E326E20A0319E30A8A11031D6C2B8A110F
:10070000D62D0730A000A1015508A30054088A0186
:1007100064208A11031DA42B0130E400E501640864
:10072000A0006508A100A30104308A015B208A11A2
:10073000031DA22B8A11FC26E40A0319E50A8A117B
:10074000031D8F2B8A11D62D0830A000A10155085A
:10075000A30054088A0164208A11031D662C8316A5
:10076000D401D5018312831654088312A000831686
:1007700055088312A100A30109308A015B208A1168
:10078000031D642C831655088A118312031DE82B60
:1007900083165408093C8A118312031CE82B8A1122
:1007A000D523C000C1018A11E82B03308A008316CB
:1007B00054088312DE3E03188A0A82003F343F3415
:1007C0003F343F343F343F343F343F343F343F3491
:1007D000831655088A118312031D0E2C83165408A4
:1007E000093C8A118312031C0E2C8A11FB23B800CA
:1007F000B9018A110E2C04308A0083165408831222
:10080000043E03188A0A8200073407340734073489
:100810000734073407340734073407348316550880
:100820008A118312031D342C83165408093C8A1143
:100830008312031C342C8A112124C600C7018A119B
:10084000342C04308A008316540883122A3E03187D
:100850008A0A82000034043402340134083410342B
:100860002034003400340034831655088A11831272
:10087000031D5A2C83165408093C8A118312031C49
:100880005A2C8A114724BE00BF018A115A2C043009
:100890008A00831654088312503E03188A0A820085
:1008A00000340034003400340034003400340434A4
:1008B000023401348A118B278316D40A0319D50A0E
:1008C0008A118312031DB32B8A11D62D0930A00083
:1008D000A1015508A30054088A0164208A11031D50
:1008E000752D8316D201D301831283165208831209
:1008F000A000831653088312A100A30109308A01C6
:100900005B208A11031D732D8316C00A0319C10AC7
:1009100040088312A000831641088312A100A3019E
:1009200005308A015E208A11031D9A2C8316C001AE
:10093000C1018312831641088A118312031DD32C2F
:10094000831640088312A200043C8A11031CD32C96
:100950000310220DA2078A11BD24A000A20A8A1149
:10096000BD24A100A20A8A11BD248A010120200809
:10097000C8002108C9008A11D32C04308A0022083B
:10098000C43E03188A0A820064340034003496346A
:1009900000340034C834003400342C3401340034C2
:1009A000C83400340034831653088A118312031D9F
:1009B000F92C83165208093C8A118312031CF92C66
:1009C0008A11E624C200C3018A11F92C04308A007E
:1009D000831652088312EF3E03188A0A82000034FD
:1009E000063407340F341F343F34003400340034ED
:1009F0000034831653088A118312031D1F2D83169A
:100A00005208093C8A118312031C1F2D8A110C25E0
:100A1000BA00BB018A111F2D05308A0083165208C7
:100A20008312153E03188A0A820000340034003411
:100A300004340634073400340034003400348316A0
:100A400053088A118312031D452D83165208093C51
:100A50008A118312031C452D8A113225C400C50159
:100A60008A11452D05308A008316520883123B3EB9
:100A700003188A0A820000340034063407340F3425
:100A80001F343F34003400340034831653088A1175
:100A90008312031D6B2D83165208093C8A118312A1
:100AA000031C6B2D8A115825BC00BD018A116B2DCA
:100AB00005308A00831652088312613E03188A0AA1
:100AC0008200003400340034003400340034003438
:100AD0000034003400348316D20A0319D30A8A1171
:100AE0008312031D752C8A11D62D0A30A000A10196
:100AF0005508A30054088A0164208A11031DBE2DE5
:100B00008316C830B200B3018312831632088312F1
:100B1000A000831633088312A100A30164308A0168
:100B200061208A11031DA62D8A11CC27143083164B
:100B3000B20200308A1183120318A22D013E8A11DD
:100B40000318A62DB3028A110318852D0130E60083
:100B5000E7016608A0006708A100A30107308A0129
:100B60005B208A11031DBC2D8A11CC27E60A0319CC
:100B7000E70A8A11031DA92D8A11D62D0B30A0007A
:100B8000A1015508A30054088A0164208A11031D9D
:100B9000CB2D8A11D62D0C30A000A1015508A30041
:100BA00054088A0164208A11031DD62D8A01B128B8
:100BB00085018701043087006F08A3006E088A0151
:100BC0003A20023087006F08A3006E088A013A209D
:100BD000013087006F08A3006E088A013A20203098
:100BE00087006F08A3006E088A013A201030870042
:100BF0006F08A3006E088A013A20083087006F084A
:100C0000A3006E088A013A200430850087016F082E
:100C1000A3006E088A013A20023085006F08A30005
:100C20006E088A013A20013085006F08A3006E0823
:100C30008A013A2008000730870085017308A30065
:100C400072088A013A208501383087007308A300B2
:100C500072088A013A200730850087017308A300D3
:100C600072088A013A200800073085003F3087006B
:100C70007508A30074088A013A2085018701750868
:100C8000A30074088A013A2008001030870085010B
:100C90007908A30078088A013A20053085001530CC
:100CA00087007908A30078088A013A20023085007D
:100CB0002A3087007908A30078088A013A200800C2
:100CC000831632088312A000831633088312A10012
:100CD0008A012A2020088316B20083122108831675
:100CE000B30032088312A000831633088312A100D8
:100CF0001030A2000430A3008A0176208316B400CD
:100D0000831221088316B50083120A30A600A701BA
:100D1000831634088312A200831635088312A300B9
:100D20008A019220F0002508F10014307007831624
:100D3000B600831271080318013E8316B700340809
:100D40008312A000831635088312A1000930A20087
:100D5000A3018A0176208316B80083122108831626
:100D6000B90083120A30A600A70183163408831243
:100D7000A200831635088312A3008A0192208316ED
:100D8000BA00831225088316BB0038088312850039
:100D90008316340883128700831637088312A30052
:100DA0008316360883128A013A20073085003F30C7
:100DB000870083163B088312A30083163A08831228
:100DC0008A013A2008000530870085016F08A300DA
:100DD0006E088A013A201030870085016F08A30051
:100DE0006E088A013A208701053085006F08A3004C
:100DF0006E088A013A2008007D08A3007C088A0159
:100E00003A200430870085017D08A3007C088A0110
:100E10003A200230870085017D08A3007C088A0102
:100E20003A200130870085017D08A3007C088A01F3
:100E30003A200830870085017D08A3007C088A01DC
:100E40003A208701013085007D08A3007C088A01D3
:100E50003A2087010A3085007D08A3007C088A01BA
:100E60003A208701643085007D08A3007C088A0150
:100E70003A202030870085017D08A3007C088A0184
:100E80003A2008008316AC01AD01831283162C08AA
:100E90008312A00083162D088312A1001F30A30027
:100EA00040308A015B208A11031D8A2F83162C088B
:100EB000403CA8002D08031C013E1F3CA9008312E2
:100EC000420887003A08850083162D088312A10086
:100ED00083162C0883128A014720440887003C08A7
:100EE0008500831629088312A1008316280883121F
:100EF0008A01472048088316AC0783124908031863
:100F0000013E8A1103188A2F8316AD078A118312B6
:100F1000031C462F080083168430AA000330AB0060
:100F20008312CE01CF014E08A0004F08A100A301FB
:100F3000FA308A015B208A11031DCB2F83162A0801
:100F4000403CA6002B08031C013E1F3CA700831257
:100F5000400887003808850083162B088312A100FB
:100F600083162A0883128A014720460887003E0814
:100F70008500831627088312A10083162608831292
:100F80008A0147201430CE078A11031C932FCF0A01
:100F90008A11031D932F080083165030A000A10171
:100FA0008312013087008501831621088312A30074
:100FB0008316200883128A013A200A30870083169C
:100FC00021088312A3008316200883128A013A2085
:100FD0001430870001308500831621088312A30096
:100FE0008316200883128A013A20203087000230BD
:100FF0008500831621088312A3008316200883121C
:101000008A013A2087010430850083162108831263
:10101000A3008316200883128A013A200430870037
:101020008501831621088312A300831620088312EA
:101030008A013A2022308700831621088312A300F8
:101040008316200883128A013A2011308700043069
:101050008500831621088312A300831620088312BB
:101060008A013A2008308700023085008316210863
:101070008312A3008316200883128A013A20870175
:1010800001308500831621088312A30083162008EF
:1010900083128A013A2087010430850083162108D3
:1010A0008312A3008316200883128A013A2020307D
:1010B000870002308500831621088312A30083165F
:1010C000200883128A013A201430870001308500FD
:1010D000831621088312A3008316200883128A0135
:1010E0003A200A3087008501831621088312A30065
:1010F0008316200883128A013A2001308700831664
:1011000021088312A3008316200883128A013A2043
:10111000870101308500831621088312A3008316FE
:10112000200883128A013A200830870002308500A7
:10113000831621088312A3008316200883128A01D4
:101140003A2011308700043085008316210883126D
:10115000A3008316200883128A013A2022308700D8
:101160008501831621088312A300831620088312A9
:101170008A013A2004308700831621088312A300D5
:0C1180008316200883128A013A20080020
:02400E00FC3F75
:00000001FF
