:020000040000FA
:100000006628003803196128A800200884002118F8
:100010008317A001A101A81B15280008A000A81C97
:100020006128840A0008A10061281A200005031D28
:10003000A00A612800308A0028080739223E0318E8
:100040008A0A820001340234043408341034203423
:1000500040348034A301A200FF30A207031CA30791
:10006000031C61280330A100DF3038202C28A101B7
:10007000E83EA000A109FC30031C4128A00703189A
:100080003E28A0076400A10F3E2820184728A01C86
:100090004B2800004B280800A20001305128A20084
:1000A0000530A80023082102031D58282208200239
:1000B000043003180130031902302805031DFF30F6
:1000C00061288313031383126400080083168701D9
:1000D00085018312BC01BD013C08A0003D08A100C0
:1000E000A30113308A014C208A11031D19293D08F0
:1000F0008A11031DD9283C08A200133C8A11031C55
:10010000D9280310220DA2078A119620A000A20A66
:100110008A119620A100A20A8A1196208A01012044
:100120002008BE002108BF008A11D92800308A00AB
:1001300022089D3E03188A0A8200013400340034EC
:100140000234003400340334003400340434003406
:1001500000340234003400340334003400340434F6
:1001600000340034013400340034043400340034EA
:1001700003340034003402340034003401340034D9
:1001800000340334003400340134003400340434C7
:1001900000340034033400340034023400340034BA
:1001A00004340034003401340034003403340034A7
:1001B00000340130A000A1013F08A3003E088A01DD
:1001C0004F208A11031DE8288A111B218A11132947
:1001D0000230A000A1013F08A3003E088A014F2081
:1001E0008A11031DF7288A1161218A11132903300E
:1001F000A000A1013F08A3003E088A014F208A11F8
:10020000031D06298A117E218A1113290430A000BA
:10021000A1013F08A3003E088A014F208A11031D57
:1002200013298A119321BC0A0319BD0A8A11031DDF
:100230006C288A016A286430C000C10185018701E9
:10024000043087004108A30040088A012B200230B7
:1002500087004108A30040088A012B200130870055
:100260004108A30040088A012B2020308700410864
:10027000A30040088A012B20103087004108A3000A
:1002800040088A012B20083087004108A30040085D
:100290008A012B200430850087014108A300400813
:1002A0008A012B20023085004108A30040088A0102
:1002B0002B20013085004108A30040088A012B2033
:1002C00008009030C2000130C3000730870085016C
:1002D0004308A30042088A012B208501383087009B
:1002E0004308A30042088A012B20073085008701BC
:1002F0004308A30042088A012B2008009030C40064
:100300000130C500073085003F3087004508A30055
:1003100044088A012B20850187014508A300440871
:100320008A012B2008002C30C8000130C900103091
:10033000870085014908A30048088A012B20053061
:100340008500153087004908A30048088A012B2042
:10035000023085002A3087004908A30048088A0136
:040360002B20080046
:02400E00FC3F75
:00000001FF
