:020000040000FA
:100000006928003803196428A800200884002118F2
:100010008317A001A101A81B15280008A000A81C97
:100020006428840A0008A10064281A200005031D22
:10003000A00A642800308A0028080739223E0318E5
:100040008A0A820001340234043408341034203423
:1000500040348034A301A200FF30A207031CA30791
:10006000031C64280330A100DF3038202C28A101B4
:10007000E83EA000A109FC30031C4128A00703189A
:100080003E28A0076400A10F3E2820184728A01C86
:100090004B2800004B280800A20001305428A20081
:1000A00004305428A2000530A80023082102031DB3
:1000B0005B282208200204300318013003190230A3
:1000C0002805031DFF306428831303138312640083
:1000D00008008316870185018312BC01BD013C081D
:1000E000A0003D08A100A30113308A014C208A1111
:1000F000031D6D293D088A11031DDC283C08A20060
:10010000133C8A11031CDC280310220DA2078A115C
:100110009920A000A20A8A119920A100A20A8A119E
:1001200099208A0101202008BE002108BF008A1101
:10013000DC2800308A002208A03E03188A0A8200C8
:100140000134003400340234003400340334003409
:1001500000340434003400340234003400340334F6
:1001600000340034043400340034013400340034EA
:1001700004340034003403340034003402340034D6
:1001800000340134003400340334003400340134CA
:1001900000340034043400340034033400340034B8
:1001A00002340034003404340034003401340034A8
:1001B00000340334003400340130A000A1013F08B2
:1001C000A3003E088A0152208A11031DEB288A11E0
:1001D0006F218A1167290230A000A1013F08A30006
:1001E0003E088A0152208A11031DFA288A11B5217E
:1001F0008A1167290330A000A1013F08A3003E082F
:100200008A0152208A11031D09298A11D2218A11DB
:1002100067290430A000A1013F08A3003E088A011D
:1002200052208A11031D67299030C8000130C9008F
:100230004808A0004908A100A30196308A014F2078
:100240008A11031D33298A11E7213230C802003098
:100250008A1103182F29013E8A1103183329C90274
:100260008A11031818299630C800C9014808A0004F
:100270004908A100A3015A308A014F208A11031DA9
:1002800051298A11E7210A30C80200308A11031867
:100290004D29013E8A1103185129C9028A110318F8
:1002A00036290130BC00BD013C08A0003D08A1007A
:1002B000A30107308A014C208A11031D67298A1186
:1002C000E721BC0A0319BD0A8A11031D5429BC0A7F
:1002D0000319BD0A8A11031D6F288A016D28643035
:1002E000C000C10185018701043087004108A300D7
:1002F00040088A012B20023087004108A3004008F3
:100300008A012B20013087004108A30040088A01A0
:100310002B20203087004108A30040088A012B20B1
:10032000103087004108A30040088A012B200830C4
:1003300087004108A30040088A012B200430850073
:1003400087014108A30040088A012B200230850064
:100350004108A30040088A012B2001308500410894
:10036000A30040088A012B2008009030C200013011
:10037000C3000730870085014308A30042088A01B3
:100380002B208501383087004308A30042088A01EA
:100390002B200730850087014308A30042088A010B
:1003A0002B2008009030C4000130C50007308500C4
:1003B0003F3087004508A30044088A012B208501AF
:1003C00087014508A30044088A012B20080010304B
:1003D000870085014908A30048088A012B200530C1
:1003E0008500153087004908A30048088A012B20A2
:1003F000023085002A3087004908A30048088A0196
:040400002B200800A5
:02400E00FC3F75
:00000001FF
