:020000040000FA
:10000000AD2800380319A828A8002008840021186A
:100010008317A001A101A81B15280008A000A81C97
:10002000A828840A0008A100A8281A200005031D9A
:10003000A00AA82800308A0028080739223E0318A1
:100040008A0A820001340234043408341034203423
:1000500040348034210820040319A00A8030201A7B
:10006000A1062019A106A018A106210DA00DA10D21
:10007000A828A301A200FF30A207031CA307031CAA
:10008000A8280330A100DF3047203B28A101E83E2B
:10009000A000A109FC30031C5028A00703184D281C
:1000A000A0076400A10F4D2820185628A01C5A282C
:1000B00000005A280800A20001306628A20006307D
:1000C0006628A20004306628A2000530A800230894
:1000D0002102031D6D28220820020430031801307C
:1000E000031902302805031DFF30A828A501A4012B
:1000F0001030A600210DA40DA50D2208A40223088E
:10010000031C230FA50203188C282208A407230828
:100110000318230FA5070310A00DA10DA60B7A2825
:100120002008A8281030A800A101A001A70CA60C47
:10013000031CA0282208A00723080318230FA107E7
:10014000A10CA00CA50CA40CA80B96282408A82888
:10015000831303138312640008008316870185014B
:1001600083125C08A0005D08A1008A012A202008F3
:10017000DC002108DD005C08A0005D08A100113052
:10018000A200A3018A0176202408DE002508DF00F2
:1001900001305E07E0005F080318013EE100013016
:1001A000A000A1016108A30060088A0164208A11EF
:1001B000031D75298316E00A0319E10A60088312FA
:1001C000A000831661088312A100A30105308A01F3
:1001D0005E208A11031DF0288316E001E1018312DD
:1001E000831661088A118312031D2D298316600866
:1001F0008312A200043C8A11031C2D290310220D36
:10020000A2078A111721A000A20A8A111721A100B2
:10021000A20A8A1117218A01012020088316A20050
:10022000831221088316A30083128A112D2901301D
:100230008A0022081E3E03188A0A82005A340034BB
:100240000034FA340034003464340034003432347E
:10025000003400349634003400348316620883126C
:10026000A000831663088312A1008A012A202008B7
:100270008316E200831221088316E30062088312CA
:10028000A000831663088312A1000A30A200A30114
:100290008A01762024088316E40083122508831639
:1002A000E50001306407E60065080318013EE70039
:1002B0008312E401E5016408A0006508A10083162B
:1002C00067088312A3008316660883128A015B20E5
:1002D0008A11031D73298A11B926E40A0319E50A54
:1002E0008A11031D5B298A11B72E0230A000A101DB
:1002F0006108A30060088A0164208A11031DEE29A9
:100300008316D80A0319D90A58088312A000831645
:1003100059088312A100A30105308A015E208A11C9
:10032000031D96298316D801D90183128316590813
:100330008A118312031DD629831658088312A2003E
:10034000053C8A11031CD6290310220DA2078A112D
:10035000BD21A000A20A8A11BD21A100A20A8A1112
:10036000BD218A01012020088316AE0083122108D6
:100370008316AF0083128A11D62901308A00220821
:10038000C43E03188A0A8200503400340034C83452
:1003900000340034783400340034963400340034AF
:1003A0004634003400343234003400340130EE007E
:1003B000EF016E08A0006F08A100A30105308A01BB
:1003C0005B208A11031DEC298A112027EE0A0319EC
:1003D000EF0A8A11031DD9298A11B72E0330A00014
:1003E000A1016108A30060088A0164208A11031D2D
:1003F000952A8316E40A0319E50A64088312A0000B
:10040000831665088312A100A30105308A015E20CE
:100410008A11031D0F2A8316E401E5018312831656
:1004200065088A118312031D4C2A831664088312FF
:10043000A200043C8A11031C4C2A0310220DA207BF
:100440008A113622A000A20A8A113622A100A20A2D
:100450008A1136228A01012020088316B0008312F7
:1004600021088316B10083128A114C2A02308A00B7
:1004700022083D3E03188A0A82005A3400340034B0
:10048000FA3400340034643400340034323400343C
:100490000034963400340034831668088312A000B8
:1004A000831669088312A1008A012A202008831676
:1004B000E800831221088316E90068088312A0006F
:1004C000831669088312A1000A30A200A3018A01E1
:1004D000762024088316EA00831225088316EB0091
:1004E00001306A07EC006B080318013EED0083122F
:1004F0000130F000F1017008A0007108A10083161E
:100500006D088312A30083166C0883128A015B2096
:100510008A11031D932A8A114527F00A0319F10A4B
:100520008A11031D7B2A8A11B72E0430A000A10175
:100530006108A30060088A0164208A11031D042B4E
:100540008316FA30B400B50183128316340883127F
:10055000A000831635088312A100A30196308A01FA
:1005600061208A11031DC62A8A115E27193083165D
:10057000B40200308A1183120318C22A013E8A1184
:100580000318C62AB5028A110318A52A83168230D9
:10059000B400B5018312831634088312A0008316B9
:1005A00035088312A100A3015A308A0161208A1103
:1005B000031DEC2A8A115E270A308316B40200302C
:1005C0008A1183120318E82A013E8A110318EC2AC3
:1005D000B5028A110318CB2A0130EA00EB016A0840
:1005E000A0006B08A100A30104308A015B208A11DE
:1005F000031D022B8A115E27EA0A0319EB0A8A11EE
:10060000031DEF2A8A11B72E0530A000A101610851
:10061000A30060088A0164208A11031D272B013082
:10062000EE00EF016E08A0006F08A100A3010430E6
:100630008A015B208A11031D252B8A118527EE0A6A
:100640000319EF0A8A11031D122B8A11B72E0630E7
:10065000A000A1016108A30060088A0164208A113A
:10066000031DA02B8316EE0A0319EF0A6E088312EE
:10067000A00083166F088312A100A30105308A0130
:100680005E208A11031D482B8316EE01EF018312B1
:1006900083166F088A118312031D882B83166E0838
:1006A0008312A200053C8A11031C882B0310220D23
:1006B000A2078A116F23A000A20A8A116F23A1004A
:1006C000A20A8A116F238A01012020088316B6002E
:1006D000831221088316B70083128A11882B0330F6
:1006E0008A002208763E03188A0A820050340034B9
:1006F00000347834003400346434003400343C3442
:1007000000340034463400340034413400340034C2
:100710000130F000F1017008A0007108A100A301F0
:1007200005308A015B208A11031D9E2B8A15082043
:10073000F00A0319F10A8A11031D8B2B8A11B72EB7
:100740000730A000A1016108A30060088A016420AD
:100750008A11031DC32B0130F200F3017208A000BF
:100760007308A100A30104308A015B208A11031DD4
:10077000C12B8A152D20F20A0319F30A8A11031DD1
:10078000AE2B8A11B72E0830A000A1016108A3008A
:1007900060088A0164208A11031D852C0317A201B9
:1007A000A3010313031722080313A0000317230850
:1007B0000313A100A30109308A015B208A11031DE4
:1007C000832C031723088A110313031D072C031717
:1007D0002208093C8A110313031C072C8A11F423F5
:1007E000CC00CD018A11072C03308A0003172208A0
:1007F0000313FD3E03188A0A82003F343F343F341E
:100800003F343F343F343F343F343F343F340317A9
:1008100023088A110313031D2D2C03172208093CFA
:100820008A110313031C2D2C8A111A24BE00BF0148
:100830008A112D2C04308A00031722080313233E4B
:1008400003188A0A82000734073407340734073450
:1008500007340734073407340734031723088A1191
:100860000313031D532C03172208093C8A11031399
:10087000031C532C8A114024D200D3018A11532C1B
:1008800004308A00031722080313493E03188A0A1A
:10089000820000340434023401340834103420342B
:1008A000003400340034031723088A110313031D96
:1008B000792C03172208093C8A110313031C792C95
:1008C0008A116624C400C5018A11792C04308A007B
:1008D0000317220803136F3E03188A0A82000034AC
:1008E0000034003400340034003400340434023462
:1008F00001348A15E0200317A20A0319A30A8A11FA
:100900000313031DD22B8A11B72E0930A000A101B9
:100910006108A30060088A0164208A11031D962DD6
:100920000317A001A1010313031720080313A0005C
:10093000031721080313A100A30109308A015B20DA
:100940008A11031D942D8316DE0A0319DF0A5E083F
:100950008312A00083165F088312A100A301053053
:100960008A015E208A11031DB92C8316DE01DF0186
:10097000831283165F088A118312031DF22C8316DB
:100980005E088312A200043C8A11031CF22C03109F
:10099000220DA2078A11DC24A000A20A8A11DC24FD
:1009A000A100A20A8A11DC248A0101202008D400B7
:1009B0002108D5008A11F22C04308A002208E33E77
:1009C00003188A0A820064340034003496340034F8
:1009D0000034C834003400342C3401340034C834BA
:1009E00000340034031721088A110313031D182D46
:1009F00003172008093C8A110313031C182D8A11C0
:100A00000525CE00CF018A11182D05308A00031765
:100A1000200803130E3E03188A0A820000340634AD
:100A200007340F341F343F340034003400340034B2
:100A3000031721088A110313031D3E2D03172008F5
:100A4000093C8A110313031C3E2D8A112B25C0007B
:100A5000C1018A113E2D05308A00031720080313B7
:100A6000343E03188A0A820000340034003404340F
:100A700006340734003400340034003403172108EE
:100A80008A110313031D642D03172008093C8A11E2
:100A90000313031C642D8A115125D000D1018A1142
:100AA000642D05308A000317200803135A3E0318EB
:100AB0008A0A820000340034063407340F341F34AD
:100AC0003F34003400340034031721088A11031323
:100AD000031D8A2D03172008093C8A110313031CE8
:100AE0008A2D8A117725C200C3018A118A2D05300B
:100AF0008A00031720080313803E03188A0A820025
:100B00000034003400340034003400340034003445
:100B1000003400348A1597200317A00A0319A10A8C
:100B20008A110313031D942C8A11B72E0A30A000DA
:100B3000A1016108A30060088A0164208A11031DD5
:100B4000DF2D8316C830CE00CF01831283164E08E6
:100B50008312A00083164F088312A100A301643002
:100B60008A0161208A11031DC72D8A152121323087
:100B70008316CE0200308A1183120318C32D013E62
:100B80008A110318C72DCF028A110318A62D013030
:100B9000F400F5017408A0007508A100A30103305A
:100BA0008A015B208A11031DDD2D8A152121F40A9B
:100BB0000319F50A8A11031DCA2D8A11B72E0B30AD
:100BC000A000A1016108A30060088A0164208A11C5
:100BD000031D022E0130F600F7017608A000770809
:100BE000A100A30102308A015B208A11031D002E9F
:100BF0008A151B22F60A0319F70A8A11031DED2D27
:100C00008A11B72E0C30A000A1016108A300600872
:100C10008A0164208A11031D112E8A15E8228A1187
:100C2000B72E0D30A000A1016108A30060088A0161
:100C300064208A11031D202E8A1517248A11B72ECD
:100C40000E30A000A1016108A30060088A016420A1
:100C50008A11031D8C2E8316DC0A0319DD0A5C0839
:100C60008312A00083165D088312A100A301033044
:100C70008A015E208A11031D412E8316DC01DD01ED
:100C8000831283165D088A118312031D742E831646
:100C90005C088312A200023C8A11031C742E03100C
:100CA000220DA2078A116426A000A20A8A116426D6
:100CB000A100A20A8A1164268A0101202008FA00F4
:100CC0002108FB008A11742E06308A0022086B3E30
:100CD00003188A0A820064340034003496340034E5
:100CE00000345034003400340130E600E701660877
:100CF000A0006708A100A30108308A015B208A11C7
:100D0000031D8A2E8A154F24E60A0319E70A8A1161
:100D1000031D772E8A11B72E0F30A000A1016108A4
:100D2000A30060088A0164208A11031D9B2E8A1586
:100D3000DC248A11B72E1030A000A1016108A300A5
:100D400060088A0164208A11031DAA2E8A1587254E
:100D50008A11B72E1130A000A1016108A30060081C
:100D60008A0164208A11031DB72E8A1529268A015B
:100D7000B128850187010430870083162308831278
:100D8000A3008316220883128A013A2002308700CA
:100D9000831623088312A3008316220883128A0174
:100DA0003A2001308700831623088312A30083169C
:100DB000220883128A013A202030870083162308F4
:100DC0008312A3008316220883128A013A2010306E
:100DD0008700831623088312A30083162208831238
:100DE0008A013A2008308700831623088312A30063
:100DF0008316220883128A013A2004308500870175
:100E0000831623088312A3008316220883128A0103
:100E10003A2002308500831623088312A30083162C
:100E2000220883128A013A200130850083162308A4
:100E30008312A3008316220883128A013A20080035
:100E400007308700850183162F088312A3008316BD
:100E50002E0883128A013A208501383087008316D4
:100E60002F088312A30083162E0883128A013A20CA
:100E700007308500870183162F088312A30083168D
:100E80002E0883128A013A200800073085003F307F
:100E90008700831631088312A3008316300883125B
:100EA0008A013A2085018701831631088312A30045
:100EB0008316300883128A013A2008001030870018
:100EC0008501831635088312A30083163408831224
:100ED0008A013A20053085001530870083163508D1
:100EE0008312A3008316340883128A013A20023049
:100EF00085002A308700831635088312A3008316E5
:100F0000340883128A013A20080083164E0883129F
:100F1000A00083164F088312A1008A012A2020080E
:100F20008316CE00831221088316CF004E08831249
:100F3000A00083164F088312A1001030A2000430D5
:100F4000A3008A0176208316D0008312210883161D
:100F5000D10083120A30A600A7018316500883121D
:100F6000A200831651088312A3008A0192208316DF
:100F7000A400831225088316A50014302407D2008C
:100F800025080318013ED30050088312A0008316E1
:100F900051088312A1000930A200A3018A01762022
:100FA0008316D400831221088316D50083120A30D9
:100FB000A600A701831650088312A20083165108C9
:100FC0008312A3008A0192208316D600831225087B
:100FD0008316D700540883128500831650088312A5
:100FE0008700831653088312A300831652088312C6
:100FF0008A013A20073085003F3087008316570862
:101000008312A3008316560883128A013A2008002F
:10101000053087008501831623088312A3008316F9
:10102000220883128A013A20103087008501831636
:1010300023088312A3008316220883128A013A2010
:10104000870105308500831623088312A3008316C9
:10105000220883128A013A20080083163908831275
:10106000A3008316380883128A013A2004308700CF
:101070008501831639088312A3008316380883126A
:101080008A013A20023087008501831639088312CD
:10109000A3008316380883128A013A2001308700A2
:1010A0008501831639088312A3008316380883123A
:1010B0008A013A2008308700850183163908831297
:1010C000A3008316380883128A013A208701013071
:1010D0008500831639088312A3008316380883120B
:1010E0008A013A2087010A30850083163908831265
:1010F000A3008316380883128A013A2087016430DE
:101100008500831639088312A300831638088312DA
:101110008A013A202030870085018316390883121E
:10112000A3008316380883128A013A200800831628
:10113000C801C9018312831648088312A0008316D0
:1011400049088312A1001F30A30040308A015B20B0
:101150008A15031DDF2883164808403CC40049084F
:10116000031C013E1F3CC50083124E088700400847
:101170008500831649088312A1008316480883124C
:101180008A014720500887004208850083164508D9
:101190008312A1008316440883128A014720540851
:1011A0008316C807831255080318013E8A150318D1
:1011B000DF288316C9078A158312031C9B280800A1
:1011C00083168430C6000330C7008312DA01DB01C6
:1011D0005A08A0005B08A100A301FA308A015B2035
:1011E0008A15031D202983164608403CC200470883
:1011F000031C013E1F3CC30083124C0887003E08BD
:101200008500831647088312A100831646088312BF
:101210008A01472052088700440885008316430846
:101220008312A1008316420883128A0147201430DA
:10123000DA078A15031CE828DB0A8A15031DE8284B
:10124000080083165030BC00BD01831201308700B6
:10125000850183163D088312A30083163C08831280
:101260008A013A200A30870083163D088312A300C2
:1012700083163C0883128A013A201430870001301B
:10128000850083163D088312A30083163C08831251
:101290008A013A20203087000230850083163D08FD
:1012A0008312A30083163C0883128A013A20870127
:1012B0000430850083163D088312A30083163C0882
:1012C00083128A013A2004308700850183163D0885
:1012D0008312A30083163C0883128A013A2022302D
:1012E000870083163D088312A30083163C088312EF
:1012F0008A013A20113087000430850083163D08AA
:101300008312A30083163C0883128A013A20083016
:1013100087000230850083163D088312A3008316E0
:101320003C0883128A013A20870101308500831628
:101330003D088312A30083163C0883128A013A20D9
:1013400087010430850083163D088312A3008316AD
:101350003C0883128A013A20203087000230850041
:1013600083163D088312A30083163C0883128A016A
:101370003A20143087000130850083163D0883121F
:10138000A30083163C0883128A013A200A308700A2
:10139000850183163D088312A30083163C0883123F
:1013A0008A013A200130870083163D088312A3008A
:1013B00083163C0883128A013A2087010130850098
:1013C00083163D088312A30083163C0883128A010A
:1013D0003A20083087000230850083163D088312CA
:1013E000A30083163C0883128A013A20113087003B
:1013F0000430850083163D088312A30083163C0841
:1014000083128A013A2022308700850183163D0825
:101410008312A30083163C0883128A013A20043009
:10142000870083163D088312A30083163C088312AD
:101430008A013A20080083161E30AC00AD018312E9
:1014400083162C088312A00083162D088312A10096
:10145000A30132308A015B208A15031D812A0230E4
:101460008500870183162D088312A30083162C089C
:1014700083128A013A2010308700850183162D08D7
:101480008312A30083162C0883128A013A200230AB
:10149000870083162D088312A30083162C0883125D
:1014A0008A013A200530870083162D088312A30095
:1014B00083162C0883128A013A202830870083166D
:1014C0002D088312A30083162C0883128A013A2068
:1014D00087010530850083162D088312A30083162B
:1014E0002C0883128A013A2005308316AC078A152E
:1014F0008312031C202A8316AD0A8A158312031D4A
:10150000202A83163230AC00AD01831283162C08DA
:101510008312A00083162D088312A100A30164305A
:101520008A015B208A15031DE72A023085008701A6
:1015300083162D088312A30083162C0883128A01B8
:101540003A2010308700850183162D088312A300EE
:1015500083162C0883128A013A20023087008316F2
:101560002D088312A30083162C0883128A013A20C7
:101570000530870083162D088312A30083162C08DC
:1015800083128A013A202830870083162D0883129F
:10159000A30083162C0883128A013A2087010530A4
:1015A000850083162D088312A30083162C0883124E
:1015B0008A013A200A308316AC078A158312031C6D
:1015C000862A8316AD0A8A158312031D862A08000F
:1015D00083166E30E400E5018312831664088312DB
:1015E000A000831665088312A100A3010A308A01B6
:1015F00061208A15031D292B8316E601E70183125A
:10160000831666088312A000831667088312A10060
:10161000A30108308A015B208A15031D192B8A1546
:10162000A4238316E60A0319E70A8A158312031D09
:10163000002B0A308316E40200308A158312031847
:10164000252B013E8A150318292BE5028A1503185C
:10165000ED2A83160130E800E90183128316680839
:101660008312A000831669088312A100A301193018
:101670008A015B208A15031D652B83160A30E4005E
:10168000E501E601E7018312831666088312A000D4
:10169000831667088312A100A30108308A015B202A
:1016A0008A15031D5D2B8A15A4238316E60A0319E8
:1016B000E70A8A158312031D442B8316E80A0319CF
:1016C000E90A8A158312031D2E2B83160A30E400C3
:1016D000E5018312831664088312A000831665084F
:1016E0008312A100A3016E308A015B208A15031DBD
:1016F000A32B8316E601E701831283166608831283
:10170000A000831667088312A100A30108308A0194
:101710005B208A15031D962B8A15A4238316E60ADF
:101720000319E70A8A158312031D7D2B0A308316DD
:10173000E4078A158312031C6A2B8316E50A8A15AF
:101740008312031D6A2B080083160130EA00EB01A7
:10175000831283166A088312A00083166B08831213
:10176000A100831665088312A30083166408831200
:101770008A015B208A15031D162C831667088A15BB
:101780008312031DE12B83166608083C8A15831219
:10179000031CE12B8A15CF2385008A15E12B0B3022
:1017A0008A00831666088312D83E03188A0A8200CC
:1017B0000134013405340734073406340634023466
:1017C0000034831667088A158312031D052C8316BF
:1017D0006608083C8A158312031C052C8A15F3231E
:1017E00087008A15052C0B308A0083166608831241
:1017F000FC3E03188A0A820004342C342D342F3422
:101800003F343B341334123410340330A100E83039
:101810008A014720073085003F3087008316EA0A97
:101820000319EB0A8A158312031DA92B08008316DE
:101830006430AA00AB0183120330870006308500B4
:1018400083162B088312A30083162A0883128A01A9
:101850003A2038308700850183162B088312A300B5
:1018600083162A0883128A013A2006308700033043
:10187000850083162B088312A30083162A0883127F
:101880008A013A2038308700850183162B0883129D
:10189000A30083162A0883128A013A200800243004
:1018A0008700043085007B08A3007A088A013A206B
:1018B00002308700043085007B08A3007A088A0183
:1018C0003A2011308700043085007B08A3007A0895
:1018D0008A013A2008308700043085007B08A30085
:1018E0007A088A013A208701073085007B08A30027
:1018F0007A088A013A2020308700013085007B0871
:10190000A3007A088A013A2014308700013085004C
:101910007B08A3007A088A013A2002308700013050
:1019200085007B08A3007A088A013A2009308700E5
:10193000013085007B08A3007A088A013A20013033
:101940008700023085007B08A3007A088A013A20CC
:1019500011308700043085007B08A3007A088A01D3
:101960003A202130870085017B08A3007A088A018C
:101970003A200730870085017B08A3007A088A0196
:101980003A200C30870085017B08A3007A088A0181
:101990003A2014308700013085007B08A3007A08C4
:1019A0008A013A2004308700023085007B08A300BA
:1019B0007A088A013A2008000730BC00BD013F3098
:1019C000CA00CB016430F800F90183160130A2008F
:1019D000A3018312831622088312A0008316230812
:1019E0008312A100A30102308A015B208A15031D26
:1019F000862DDA01DB015A08A0005B08A100A301D3
:101A000005308A015B208A15031D7E2D5B088A152F
:101A1000031D222D5A08053C8A15031C222D8A1508
:101A20001525B800B9018A15222D0D308A005A08F3
:101A30001C3E03188A0A8200003401340234033445
:101A4000043405345B088A15031D3E2D5A08053CF5
:101A50008A15031C3E2D8A153125BA00BB018A1553
:101A60003E2D0D308A005A08383E03188A0A82003B
:101A70000134023403340434053406345B088A1517
:101A8000031D5A2D5A08053C8A15031C5A2D8A1528
:101A90004D25C600C7018A155A2D0D308A005A08F7
:101AA000543E03188A0A820000340134023403349D
:101AB000043405345B088A15031D762D5A08053C4D
:101AC0008A15031C762D8A156925C800C9018A1557
:101AD000762D0D308A005A08703E03188A0A82005B
:101AE0000134023403340434053406348A15972053
:101AF000DA0A0319DB0A8A15031DFB2C8316A20AD6
:101B00000319A30A8A158312031DEA2C0800073063
:101B1000BC00BD013F30CA00CB01F801F9018316BA
:101B20000130A200A3018312831622088312A000B1
:101B3000831623088312A100A30105308A015B20CC
:101B40008A15031D282EDA01DB015A08A0005B0864
:101B5000A100A30103308A015B208A15031D202EFA
:101B60005B088A15031DCA2D5A08033C8A15031CFD
:101B7000CA2D8A15BF25B800B9018A15CA2D0D30A6
:101B80008A005A08C63E03188A0A820000340134CB
:101B9000023404345B088A15031DE42D5A08033C03
:101BA0008A15031CE42D8A15D925BA00BB018A15B4
:101BB000E42D0D308A005A08E03E03188A0A82009C
:101BC00001340234043400345B088A15031DFE2DF1
:101BD0005A08033C8A15031CFE2D8A15F325C600FE
:101BE000C7018A15FE2D0D308A005A08FA3E0318E7
:101BF0008A0A820038341434123411345B088A158E
:101C0000031D182E5A08033C8A15031C182E8A152A
:101C10000D26C800C9018A15182E0E308A005A08F0
:101C2000143E03188A0A82001434123411343834F2
:101C30008A159720DA0A0319DB0A8A15031DA52DD8
:101C40008316A20A0319A30A8A158312031D942D71
:101C500008000730BC00BD013F30CA00CB01013095
:101C6000F800F901DA01DB015A08A0005B08A100C5
:101C7000A30104308A015B208A15031DB32E5B0883
:101C80008A15031D5A2E5A08043C8A15031C5A2E25
:101C90008A154E26B800B9018A155A2E0E308A00D0
:101CA0005A08553E03188A0A82000034003404346E
:101CB000023401345B088A15031D752E5A08043C52
:101CC0008A15031C752E8A156926C600C7018A1558
:101CD000752E0E308A005A08703E03188A0A820058
:101CE000043422341134083400345B088A15031D8F
:101CF000902E5A08043C8A15031C902E8A158426BF
:101D0000BA00BB018A15902E0E308A005A088B3E0D
:101D100003188A0A82000034043402340134003487
:101D20005B088A15031DAB2E5A08043C8A15031C58
:101D3000AB2E8A159F26C800C9018A15AB2E0E301E
:101D40008A005A08A63E03188A0A820022341134F7
:101D50000834003404348A159720DA0A0319DB0AA0
:081D60008A15031D342E080052
:02400E00FC3F75
:00000001FF
