:020000040000FA
:10000000AD2800380319A828A8002008840021186A
:100010008317A001A101A81B15280008A000A81C97
:10002000A828840A0008A100A8281A200005031D9A
:10003000A00AA82800308A0028080739223E0318A1
:100040008A0A820001340234043408341034203423
:1000500040348034210820040319A00A8030201A7B
:10006000A1062019A106A018A106210DA00DA10D21
:10007000A828A301A200FF30A207031CA307031CAA
:10008000A8280330A100DF3047203B28A101E83E2B
:10009000A000A109FC30031C5028A00703184D281C
:1000A000A0076400A10F4D2820185628A01C5A282C
:1000B00000005A280800A20001306628A20006307D
:1000C0006628A20004306628A2000530A800230894
:1000D0002102031D6D28220820020430031801307C
:1000E000031902302805031DFF30A828A501A4012B
:1000F0001030A600210DA40DA50D2208A40223088E
:10010000031C230FA50203188C282208A407230828
:100110000318230FA5070310A00DA10DA60B7A2825
:100120002008A8281030A800A101A001A70CA60C47
:10013000031CA0282208A00723080318230FA107E7
:10014000A10CA00CA50CA40CA80B96282408A82888
:10015000831303138312640008008316870185014B
:1001600083125C08A0005D08A1008A012A202008F3
:10017000DC002108DD005C08A0005D08A100103053
:10018000A200A3018A0176202408DE002508DF00F2
:1001900001305E07E0005F080318013EE100013016
:1001A000A000A1016108A30060088A0164208A11EF
:1001B000031D75298316E00A0319E10A60088312FA
:1001C000A000831661088312A100A30105308A01F3
:1001D0005E208A11031DF0288316E001E1018312DD
:1001E000831661088A118312031D2D298316600866
:1001F0008312A200043C8A11031C2D290310220D36
:10020000A2078A111721A000A20A8A111721A100B2
:10021000A20A8A1117218A01012020088316A20050
:10022000831221088316A30083128A112D2901301D
:100230008A0022081E3E03188A0A82005A340034BB
:100240000034FA340034003464340034003432347E
:10025000003400349634003400348316620883126C
:10026000A000831663088312A1008A012A202008B7
:100270008316E200831221088316E30062088312CA
:10028000A000831663088312A1000A30A200A30114
:100290008A01762024088316E40083122508831639
:1002A000E50001306407E60065080318013EE70039
:1002B0008312E401E5016408A0006508A10083162B
:1002C00067088312A3008316660883128A015B20E5
:1002D0008A11031D73298A11BA26E40A0319E50A53
:1002E0008A11031D5B298A11B82E0230A000A101DA
:1002F0006108A30060088A0164208A11031DEE29A9
:100300008316D80A0319D90A58088312A000831645
:1003100059088312A100A30105308A015E208A11C9
:10032000031D96298316D801D90183128316590813
:100330008A118312031DD629831658088312A2003E
:10034000053C8A11031CD6290310220DA2078A112D
:10035000BD21A000A20A8A11BD21A100A20A8A1112
:10036000BD218A01012020088316AE0083122108D6
:100370008316AF0083128A11D62901308A00220821
:10038000C43E03188A0A8200503400340034C83452
:1003900000340034783400340034963400340034AF
:1003A0004634003400343234003400340130EE007E
:1003B000EF016E08A0006F08A100A30105308A01BB
:1003C0005B208A11031DEC298A112127EE0A0319EB
:1003D000EF0A8A11031DD9298A11B82E0330A00013
:1003E000A1016108A30060088A0164208A11031D2D
:1003F000952A8316E40A0319E50A64088312A0000B
:10040000831665088312A100A30105308A015E20CE
:100410008A11031D0F2A8316E401E5018312831656
:1004200065088A118312031D4C2A831664088312FF
:10043000A200043C8A11031C4C2A0310220DA207BF
:100440008A113622A000A20A8A113622A100A20A2D
:100450008A1136228A01012020088316B0008312F7
:1004600021088316B10083128A114C2A02308A00B7
:1004700022083D3E03188A0A82005A3400340034B0
:10048000FA3400340034643400340034323400343C
:100490000034963400340034831668088312A000B8
:1004A000831669088312A1008A012A202008831676
:1004B000E800831221088316E90068088312A0006F
:1004C000831669088312A1000A30A200A3018A01E1
:1004D000762024088316EA00831225088316EB0091
:1004E00001306A07EC006B080318013EED0083122F
:1004F0000130F000F1017008A0007108A10083161E
:100500006D088312A30083166C0883128A015B2096
:100510008A11031D932A8A114627F00A0319F10A4A
:100520008A11031D7B2A8A11B82E0430A000A10174
:100530006108A30060088A0164208A11031D052B4D
:1005400083169030B4000130B5008312831634084E
:100550008312A000831635088312A100A3019630F0
:100560008A0161208A11031DC72A8A115F27323050
:100570008316B40200308A1183120318C32A013E85
:100580008A110318C72AB5028A110318A62A8316EE
:100590009630B400B5018312831634088312A0008C
:1005A000831635088312A100A3015A308A01612005
:1005B0008A11031DED2A8A115F270A308316B402BF
:1005C00000308A1183120318E92A013E8A110318A8
:1005D000ED2AB5028A110318CC2A0130EA00EB019A
:1005E0006A08A0006B08A100A30107308A015B2004
:1005F0008A11031D032B8A115F27EA0A0319EB0AEC
:100600008A11031DF02A8A11B82E0530A000A1011D
:100610006108A30060088A0164208A11031D282B49
:100620000130EE00EF016E08A0006F08A100A301E9
:1006300004308A015B208A11031D262B8A1186272C
:10064000EE0A0319EF0A8A11031D132B8A11B82E23
:100650000630A000A1016108A30060088A0164209F
:100660008A11031DA12B8316EE0A0319EF0A6E08E7
:100670008312A00083166F088312A100A301053026
:100680008A015E208A11031D492B8316EE01EF01BA
:10069000831283166F088A118312031D892B831618
:1006A0006E088312A200053C8A11031C892B0310DB
:1006B000220DA2078A117023A000A20A8A117023BA
:1006C000A100A20A8A1170238A0101202008831642
:1006D000B600831221088316B70083128A11892B72
:1006E00003308A002208773E03188A0A82005034B9
:1006F000003400347834003400346434003400347E
:100700003C34003400344634003400344134003486
:1007100000340130F000F1017008A0007108A10060
:10072000A30105308A015B208A11031D9F2B8A15C6
:100730000920F00A0319F10A8A11031D8C2B8A1172
:10074000B82E0730A000A1016108A30060088A014B
:1007500064208A11031DC42B0130F200F3017208DA
:10076000A0007308A100A30104308A015B208A1154
:10077000031DC22B8A152E20F20A0319F30A8A11CF
:10078000031DAF2B8A11B82E0830A000A10161080B
:10079000A30060088A0164208A11031D862C0317B8
:1007A000A201A3010313031722080313A0000317D8
:1007B00023080313A100A30109308A015B208A11D9
:1007C000031D842C031723088A110313031D082C0F
:1007D00003172208093C8A110313031C082C8A11F1
:1007E000F523CC00CD018A11082C03308A000317B1
:1007F00022080313FE3E03188A0A82003F343F3466
:100800003F343F343F343F343F343F343F343F3450
:10081000031723088A110313031D2E2C0317220824
:10082000093C8A110313031C2E2C8A111B24BE00C1
:10083000BF018A112E2C04308A00031722080313EB
:10084000243E03188A0A8200073407340734073429
:1008500007340734073407340734073403172308F1
:100860008A110313031D542C03172208093C8A1113
:100870000313031C542C8A114124D200D3018A1182
:10088000542C04308A000317220803134A3E03182D
:100890008A0A8200003404340234013408341034EB
:1008A0002034003400340034031723088A11031362
:1008B000031D7A2C03172208093C8A110313031C19
:1008C0007A2C8A116724C400C5018A117A2C04305D
:1008D0008A00031722080313703E03188A0A820055
:1008E0000034003400340034003400340034043464
:1008F000023401348A15E1200317A20A0319A30A5E
:100900008A110313031DD32B8A11B82E0930A000BE
:10091000A1016108A30060088A0164208A11031DF7
:10092000972D0317A001A101031303172008031338
:10093000A000031721080313A100A30109308A01B5
:100940005B208A11031D952D8316DE0A0319DF0A29
:100950005E088312A00083165F088312A100A30122
:1009600005308A015E208A11031DBA2C8316DE0130
:10097000DF01831283165F088A118312031DF32C93
:1009800083165E088312A200043C8A11031CF32C18
:100990000310220DA2078A11DD24A000A20A8A11E9
:1009A000DD24A100A20A8A11DD248A010120200889
:1009B000D4002108D5008A11F32C04308A002208C3
:1009C000E43E03188A0A820064340034003496340A
:1009D00000340034C834003400342C340134003482
:1009E000C83400340034031721088A110313031D8F
:1009F000192D03172008093C8A110313031C192D14
:100A00008A110625CE00CF018A11192D05308A00E2
:100A10000317200803130F3E03188A0A82000034CC
:100A2000063407340F341F343F34003400340034AC
:100A30000034031721088A110313031D3F2D0317E8
:100A40002008093C8A110313031C3F2D8A112C2511
:100A5000C000C1018A113F2D05308A00031720080C
:100A60000313353E03188A0A820000340034003430
:100A700004340634073400340034003400340317DF
:100A800021088A110313031D652D03172008093C53
:100A90008A110313031C652D8A115225D000D10140
:100AA0008A11652D05308A000317200803135B3E69
:100AB00003188A0A820000340034063407340F34E5
:100AC0001F343F34003400340034031721088A11E6
:100AD0000313031D8B2D03172008093C8A110313F0
:100AE000031C8B2D8A117825C200C3018A118B2D1E
:100AF00005308A00031720080313813E03188A0A71
:100B000082000034003400340034003400340034F7
:100B10000034003400348A1598200317A00A031902
:100B2000A10A8A110313031D952C8A11B82E0A30CD
:100B3000A000A1016108A30060088A0164208A1155
:100B4000031DE02D8316C830CE00CF01831283161B
:100B50004E088312A00083164F088312A100A30140
:100B600064308A0161208A11031DC82D8A15222153
:100B700032308316CE0200308A1183120318C42D3E
:100B8000013E8A110318C82DCF028A110318A72D20
:100B90000130F400F5017408A0007508A100A3015C
:100BA00003308A015B208A11031DDE2D8A15222164
:100BB000F40A0319F50A8A11031DCB2D8A11B82EE8
:100BC0000B30A000A1016108A30060088A01642025
:100BD0008A11031D032E0130F600F7017608A000EC
:100BE0007708A100A30102308A015B208A11031D4E
:100BF000012E8A151C22F60A0319F70A8A11031D11
:100C0000EE2D8A11B82E0C30A000A1016108A300BE
:100C100060088A0164208A11031D122E8A15E922B8
:100C20008A11B82E0D30A000A1016108A300600850
:100C30008A0164208A11031D212E8A1518248A1125
:100C4000B82E0E30A000A1016108A30060088A013F
:100C500064208A11031D8D2E8316DC0A0319DD0A18
:100C60005C088312A00083165D088312A100A30113
:100C700003308A015E208A11031D422E8316DC0197
:100C8000DD01831283165D088A118312031D752E00
:100C900083165C088312A200023C8A11031C752E85
:100CA0000310220DA2078A116526A000A20A8A114C
:100CB0006526A100A20A8A1165268A010120200862
:100CC000FA002108FB008A11752E06308A002208DE
:100CD0006C3E03188A0A820064340034003496346F
:100CE000003400345034003400340130E600E701B1
:100CF0006608A0006708A100A30108308A015B20F4
:100D00008A11031D8B2E8A155024E60A0319E70A5F
:100D10008A11031D782E8A11B82E0F30A000A10170
:100D20006108A30060088A0164208A11031D9C2EBB
:100D30008A15DD248A11B82E1030A000A1016108A7
:100D4000A30060088A0164208A11031DAB2E8A1556
:100D500088258A11B82E1130A000A1016108A300D6
:100D600060088A0164208A11031DB82E8A152A267C
:100D70008A01B12885018701043087008316230882
:100D80008312A3008316220883128A013A200230BC
:100D90008700831623088312A30083162208831278
:100DA0008A013A2001308700831623088312A300AA
:100DB0008316220883128A013A2020308700831686
:100DC00023088312A3008316220883128A013A2083
:100DD00010308700831623088312A300831622088D
:100DE00083128A013A200830870083162308831271
:100DF000A3008316220883128A013A20043085005A
:100E00008701831623088312A30083162208831206
:100E10008A013A2002308500831623088312A3003A
:100E20008316220883128A013A2001308500831636
:100E300023088312A3008316220883128A013A2012
:100E4000080007308700850183162F088312A3004E
:100E500083162E0883128A013A20850138308700D4
:100E600083162F088312A30083162E0883128A018B
:100E70003A2007308500870183162F088312A300CC
:100E800083162E0883128A013A2008000730850055
:100E90003F308700831631088312A3008316300881
:100EA00083128A013A208501870183163108831253
:100EB000A3008316300883128A013A2008001030FC
:100EC00087008501831635088312A3008316340832
:100ED00083128A013A200530850015308700831679
:100EE00035088312A3008316340883128A013A203E
:100EF000023085002A308700831635088312A3004C
:100F00008316340883128A013A20080083164E089B
:100F10008312A00083164F088312A1008A012A20A1
:100F200020088316CE00831221088316CF004E08B6
:100F30008312A00083164F088312A1001030A20074
:100F40000430A3008A0176208316D0008312210882
:100F50008316D10083120A30A600A7018316500819
:100F60008312A200831651088312A3008A019220E3
:100F70008316A400831225088316A50014302407C5
:100F8000D20025080318013ED30050088312A000A8
:100F9000831651088312A1000930A200A3018A011F
:100FA00076208316D400831221088316D50083127D
:100FB0000A30A600A701831650088312A2008316E8
:100FC00051088312A3008A0192208316D60083124F
:100FD00025088316D700540883128500831650080D
:100FE00083128700831653088312A30083165208C6
:100FF00083128A013A20073085003F30870083162C
:1010000057088312A3008316560883128A013A20D8
:101010000800053087008501831623088312A3008A
:101020008316220883128A013A2010308700850136
:10103000831623088312A3008316220883128A01D1
:101040003A20870105308500831623088312A30008
:101050008316220883128A013A2008008316390871
:101060008312A3008316380883128A013A200430C1
:1010700087008501831639088312A3008316380878
:1010800083128A013A2002308700850183163908CD
:101090008312A3008316380883128A013A20013094
:1010A00087008501831639088312A3008316380848
:1010B00083128A013A200830870085018316390897
:1010C0008312A3008316380883128A013A2087010D
:1010D00001308500831639088312A300831638086F
:1010E00083128A013A2087010A3085008316390865
:1010F0008312A3008316380883128A013A208701DD
:1011000064308500831639088312A30083163808DB
:1011100083128A013A20203087008501831639081E
:101120008312A3008316380883128A013A2008002C
:101130008316C801C9018312831648088312A000D0
:10114000831649088312A1001F30A30040308A0192
:101150005B208A15031DE02883164808403CC40024
:101160004908031C013E1F3CC50083124E0887003E
:1011700040088500831649088312A1008316480899
:1011800083128A0147205008870042088500831691
:1011900045088312A1008316440883128A01472060
:1011A00054088316C807831255080318013E8A1590
:1011B0000318E0288316C9078A158312031C9C288C
:1011C000080083168430C6000330C7008312DA019A
:1011D000DB015A08A0005B08A100A301FA308A01D4
:1011E0005B208A15031D212983164608403CC20056
:1011F0004708031C013E1F3CC30083124C088700B4
:101200003E088500831647088312A100831646080E
:1012100083128A01472052088700440885008316FC
:1012200043088312A1008316420883128A014720D3
:101230001430DA078A15031CE928DB0A8A15031D16
:10124000E928080083165030BC00BD01831201302C
:101250008700850183163D088312A30083163C088E
:1012600083128A013A200A30870083163D088312D0
:10127000A30083163C0883128A013A2014308700A9
:101280000130850083163D088312A30083163C08B5
:1012900083128A013A2020308700023085008316AD
:1012A0003D088312A30083163C0883128A013A206A
:1012B00087010430850083163D088312A30083163E
:1012C0003C0883128A013A20043087008501831686
:1012D0003D088312A30083163C0883128A013A203A
:1012E0002230870083163D088312A30083163C0832
:1012F00083128A013A20113087000430850083165A
:101300003D088312A30083163C0883128A013A2009
:10131000083087000230850083163D088312A30041
:1013200083163C0883128A013A2087010130850028
:1013300083163D088312A30083163C0883128A019A
:101340003A2087010430850083163D088312A300EC
:1013500083163C0883128A013A202030870002302D
:10136000850083163D088312A30083163C08831270
:101370008A013A20143087000130850083163D0829
:101380008312A30083163C0883128A013A200A3094
:101390008700850183163D088312A30083163C084D
:1013A00083128A013A200130870083163D08831298
:1013B000A30083163C0883128A013A20870101307A
:1013C000850083163D088312A30083163C08831210
:1013D0008A013A20083087000230850083163D08D4
:1013E0008312A30083163C0883128A013A2011302D
:1013F00087000430850083163D088312A3008316FE
:101400003C0883128A013A20223087008501831626
:101410003D088312A30083163C0883128A013A20F8
:101420000430870083163D088312A30083163C080E
:1014300083128A013A20080083161E30AC00AD01E9
:10144000831283162C088312A00083162D088312A2
:10145000A100A30132308A015B208A15031D822A74
:1014600002308500870183162D088312A30083169E
:101470002C0883128A013A201030870085018316D8
:101480002D088312A30083162C0883128A013A20A8
:101490000230870083162D088312A30083162C08C0
:1014A00083128A013A200530870083162D088312A3
:1014B000A30083162C0883128A013A202830870063
:1014C00083162D088312A30083162C0883128A0129
:1014D0003A2087010530850083162D088312A3006A
:1014E00083162C0883128A013A2005308316AC0734
:1014F0008A158312031C212A8316AD0A8A158312CA
:10150000031D212A83163230AC00AD0183128316ED
:101510002C088312A00083162D088312A100A301BA
:1015200064308A015B208A15031DE82A0230850099
:10153000870183162D088312A30083162C088312BB
:101540008A013A2010308700850183162D08831206
:10155000A30083162C0883128A013A2002308700E8
:1015600083162D088312A30083162C0883128A0188
:101570003A200530870083162D088312A3008316B6
:101580002C0883128A013A202830870083162D0800
:101590008312A30083162C0883128A013A20870144
:1015A0000530850083162D088312A30083162C08AE
:1015B00083128A013A200A308316AC078A158312F7
:1015C000031C872A8316AD0A8A158312031D872AF6
:1015D000080083166E30E400E50183128316640868
:1015E0008312A000831665088312A100A3010A30AC
:1015F0008A0161208A15031D2A2B8316E601E70163
:101600008312831666088312A0008316670883126C
:10161000A100A30108308A015B208A15031D1A2B43
:101620008A15A5238316E60A0319E70A8A15831289
:10163000031D012B0A308316E40200308A15831241
:101640000318262B013E8A1503182A2BE5028A155A
:101650000318EE2A83160130E800E901831283168D
:1016600068088312A000831669088312A100A301F1
:1016700019308A015B208A15031D662B83160A30F8
:10168000E400E501E601E701831283166608831290
:10169000A000831667088312A100A30108308A0105
:1016A0005B208A15031D5E2B8A15A5238316E60A87
:1016B0000319E70A8A158312031D452B8316E80ACE
:1016C0000319E90A8A158312031D2F2B83160A308A
:1016D000E400E5018312831664088312A0008316D8
:1016E00065088312A100A3016E308A015B208A1570
:1016F000031DA42B8316E601E701831283166608F7
:101700008312A000831667088312A100A30108308A
:101710008A015B208A15031D972B8A15A523831642
:10172000E60A0319E70A8A158312031D7E2B0A3085
:101730008316E4078A158312031C6B2B8316E50AB4
:101740008A158312031D6B2B080083160130EA00F3
:10175000EB01831283166A088312A00083166B08BC
:101760008312A100831665088312A3008316640800
:1017700083128A015B208A15031D172C83166708C4
:101780008A158312031DE22B83166608083C8A150E
:101790008312031CE22B8A15D02385008A15E22BC5
:1017A0000B308A00831666088312D93E03188A0A12
:1017B000820001340134053407340734063406341A
:1017C00002340034831667088A158312031D062C21
:1017D00083166608083C8A158312031C062C8A159A
:1017E000F42387008A15062C0B308A0083166608BE
:1017F0008312FD3E03188A0A820004342C342D34EF
:101800002F343F343B341334123410340330A100EE
:10181000E8308A014720073085003F308700831673
:10182000EA0A0319EB0A8A158312031DAA2B080082
:1018300083166430AA00AB018312033087000630A0
:10184000850083162B088312A30083162A088312AF
:101850008A013A2038308700850183162B088312CD
:10186000A30083162A0883128A013A2006308700D3
:101870000330850083162B088312A30083162A08E1
:1018800083128A013A2038308700850183162B089D
:101890008312A30083162A0883128A013A200800C3
:1018A00024308700043085007B08A3007A088A0171
:1018B0003A2002308700043085007B08A3007A08B4
:1018C0008A013A2011308700043085007B08A3008C
:1018D0007A088A013A2008308700043085007B08A6
:1018E000A3007A088A013A208701073085007B0827
:1018F000A3007A088A013A20203087000130850051
:101900007B08A3007A088A013A201430870001304E
:1019100085007B08A3007A088A013A2002308700FC
:10192000013085007B08A3007A088A013A2009303B
:101930008700013085007B08A3007A088A013A20DD
:1019400001308700023085007B08A3007A088A01F5
:101950003A2011308700043085007B08A3007A0804
:101960008A013A202130870085017B08A3007A088C
:101970008A013A200730870085017B08A3007A0896
:101980008A013A200C30870085017B08A3007A0881
:101990008A013A2014308700013085007B08A300BB
:1019A0007A088A013A2004308700023085007B08DB
:1019B000A3007A088A013A2008000730BC00BD0164
:1019C0003F30CA00CB016430F800F90183160130C2
:1019D000A200A3018312831622088312A00083169B
:1019E00023088312A100A30102308A015B208A151B
:1019F000031D872DDA01DB015A08A0005B08A10056
:101A0000A30105308A015B208A15031D7F2D5B0829
:101A10008A15031D232D5A08053C8A15031C232D06
:101A20008A151625B800B9018A15232D0D308A00B4
:101A30005A081D3E03188A0A820000340134023419
:101A40000334043405345B088A15031D3F2D5A08FE
:101A5000053C8A15031C3F2D8A153225BA00BB01AF
:101A60008A153F2D0D308A005A08393E03188A0A1C
:101A700082000134023403340434053406345B0834
:101A80008A15031D5B2D5A08053C8A15031C5B2D26
:101A90008A154E25C600C7018A155B2D0D308A00B8
:101AA0005A08553E03188A0A820000340134023471
:101AB0000334043405345B088A15031D772D5A0856
:101AC000053C8A15031C772D8A156A25C800C901B3
:101AD0008A15772D0D308A005A08713E03188A0A3C
:101AE00082000134023403340434053406348A1588
:101AF0009820DA0A0319DB0A8A15031DFC2C8316C9
:101B0000A20A0319A30A8A158312031DEB2C0800ED
:101B10000730BC00BD013F30CA00CB01F801F9011C
:101B200083160130A200A3018312831622088312B8
:101B3000A000831623088312A100A30105308A01A7
:101B40005B208A15031D292EDA01DB015A08A0004B
:101B50005B08A100A30103308A015B208A15031DE5
:101B6000212E5B088A15031DCB2D5A08033C8A15CC
:101B7000031CCB2D8A15C025B800B9018A15CB2DC1
:101B80000D308A005A08C73E03188A0A82000034C2
:101B90000134023404345B088A15031DE52D5A080C
:101BA000033C8A15031CE52D8A15DA25BA00BB0112
:101BB0008A15E52D0D308A005A08E13E03188A0A7D
:101BC000820001340234043400345B088A15031D9A
:101BD000FF2D5A08033C8A15031CFF2D8A15F42596
:101BE000C600C7018A15FF2D0D308A005A08FB3E3A
:101BF00003188A0A820038341434123411345B0812
:101C00008A15031D192E5A08033C8A15031C192E28
:101C10008A150E26C800C9018A15192E0E308A00B1
:101C20005A08153E03188A0A8200143412341134FB
:101C300038348A159820DA0A0319DB0A8A15031D3D
:101C4000A62D8316A20A0319A30A8A158312031D5F
:101C5000952D08000730BC00BD013F30CA00CB0104
:101C60000130F800F901DA01DB015A08A0005B0835
:101C7000A100A30104308A015B208A15031DB42E44
:101C80005B088A15031D5B2E5A08043C8A15031C49
:101C90005B2E8A154F26B800B9018A155B2E0E30CF
:101CA0008A005A08563E03188A0A8200003400341B
:101CB0000434023401345B088A15031D762E5A0859
:101CC000043C8A15031C762E8A156A26C600C701B5
:101CD0008A15762E0E308A005A08713E03188A0A39
:101CE0008200043422341134083400345B088A152D
:101CF000031D912E5A08043C8A15031C912E8A1547
:101D00008526BA00BB018A15912E0E308A005A082A
:101D10008C3E03188A0A82000034043402340134F1
:101D200000345B088A15031DAC2E5A08043C8A1542
:101D3000031CAC2E8A15A026C800C9018A15AC2E3A
:101D40000E308A005A08A73E03188A0A82002234FD
:101D500011340834003404348A159820DA0A03193F
:0A1D6000DB0A8A15031D352E08006A
:02400E00FC3F75
:00000001FF
