:020000040000FA
:100000009728003803199228A80020088400211896
:100010008317A001A101A81B15280008A000A81C97
:100020009228840A0008A10092281A200005031DC6
:10003000A00A922800308A0028080739223E0318B7
:100040008A0A820001340234043408341034203423
:1000500040348034210820040319A00A8030201A7B
:10006000A1062019A106A018A106210DA00DA10D21
:100070009228A301A200FF30A207031CA307031CC0
:1000800092280330A100DF3047203B28A101E83E41
:10009000A000A109FC30031C5028A00703184D281C
:1000A000A0076400A10F4D2820185628A01C5A282C
:1000B00000005A280800A20001306628A20006307D
:1000C0006628A20004306628A2000530A800230894
:1000D0002102031D6D28220820020430031801307C
:1000E000031902302805031DFF309228A501A40141
:1000F0001030A600210DA40DA50D2208A40223088E
:10010000031C230FA50203188C282208A407230828
:100110000318230FA5070310A00DA10DA60B7A2825
:1001200020089228831303138312640008008316A7
:10013000870185018312BA01BB013A08A0003B0880
:10014000A100A30113308A015B208A11031DE62A56
:100150003B088A11031D0A293A08A200133C8A11A0
:10016000031C0A290310220DA2078A11C720A00030
:10017000A20A8A11C720A100A20A8A11C7208A01F7
:1001800001202008BE002108BF008A110A29003082
:100190008A002208CE3E03188A0A82000134003405
:1001A00000340234003400340334003400340434A6
:1001B000003400340234003400340334003400349A
:1001C0000434003400340134003400340434003486
:1001D0000034033400340034023400340034013479
:1001E000003400340334003400340134003400346B
:1001F0000434003400340334003400340234003456
:100200000034043400340034013400340034033446
:10021000003400340130A000A1013F08A3003E08D3
:100220008A0164208A11031D9029E40A0319E50A52
:100230006408A0006508A100A30105308A015E20C2
:100240008A11031D2529E401E50165088A11031DB2
:100250005A296408A200043C8A11031C5A2903107D
:10026000220DA2078A114421A000A20A8A1144216A
:10027000A100A20A8A1144218A0101202008C60097
:100280002108C7008A115A2901308A0022084B3EF2
:1002900003188A0A82005A3400340034FA340034D5
:1002A0000034643400340034323400340034963482
:1002B000003400346608A0006708A1008A012A20E3
:1002C0002008E6002108E7006608A0006708A100F2
:1002D0000A30A200A3018A0176202408E80025083C
:1002E000E90001306807EA0069080318013EEB00E5
:1002F000B801B9013808A0003908A1006B08A300B3
:100300006A088A015B208A11031D8E298A11E8225E
:10031000B80A0319B90A8A11031D7A298A11E02A39
:100320000230A000A1013F08A3003E088A0164201A
:100330008A11031DFB29E00A0319E10A6008A000E5
:100340006108A100A30105308A015E208A11031D06
:10035000AB29E001E10161088A11031DE32960086E
:10036000A200053C8A11031CE3290310220DA207F9
:100370008A11CA21A000A20A8A11CA21A100A20AD8
:100380008A11CA218A0101202008C8002108C90059
:100390008A11E32901308A002208D13E03188A0A13
:1003A0008200503400340034C834003400347834CF
:1003B00000340034963400340034463400340034C1
:1003C0003234003400340130C000C1014008A000C4
:1003D0004108A100A30105308A015B208A11031D99
:1003E000F9298A112B23C00A0319C10A8A11031D96
:1003F000E6298A11E02A0330A000A1013F08A300EA
:100400003E088A0164208A11031D822AE80A031922
:10041000E90A6808A0006908A100A30105308A0163
:100420005E208A11031D162AE801E90169088A1174
:10043000031D4B2A6808A200043C8A11031C4B2AA6
:100440000310220DA2078A113522A000A20A8A11E8
:100450003522A100A20A8A1135228A010120200832
:10046000CA002108CB008A114B2A02308A002208D8
:100470003C3E03188A0A82005A3400340034FA34AD
:100480000034003464340034003432340034003436
:100490009634003400346C08A0006D08A1008A0175
:1004A0002A202008EC002108ED006C08A0006D084F
:1004B000A1000A30A200A3018A0176202408EE00E0
:1004C0002508EF0001306E07F0006F080318013EA9
:1004D000F1000130C200C3014208A0004308A1009E
:1004E0007108A30070088A015B208A11031D802A0D
:1004F0008A114423C20A0319C30A8A11031D6C2AF4
:100500008A11E02A0430A000A1013F08A3003E08A0
:100510008A0164208A11031DE02A9030CE00013048
:10052000CF004E08A0004F08A100A30196308A0119
:1005300061208A11031DAC2A8A1155233230CE0264
:1005400000308A110318A82A013E8A110318AC2A28
:10055000CF028A110318912A9630CE00CF014E089F
:10056000A0004F08A100A3015A308A0161208A111E
:10057000031DCA2A8A1155230A30CE0200308A117F
:100580000318C62A013E8A110318CA2ACF028A110B
:100590000318AF2A0130BC00BD013C08A0003D0893
:1005A000A100A30107308A015B208A11031DE02A04
:1005B0008A115523BC0A0319BD0A8A11031DCD2ACD
:1005C000BA0A0319BB0A8A11031D9D288A019B28B8
:1005D00085018701043087004708A30046088A0187
:1005E0003A20023087004708A30046088A013A20D3
:1005F000013087004708A30046088A013A202030CE
:1006000087004708A30046088A013A201030870077
:100610004708A30046088A013A20083087004708A7
:10062000A30046088A013A20043085008701470864
:10063000A30046088A013A20023085004708A3003B
:1006400046088A013A20013085004708A300460881
:100650008A013A2008000730870085014908A30075
:1006600048088A013A208501383087004908A300EC
:1006700048088A013A200730850087014908A3000D
:1006800048088A013A200800073085003F3087007B
:100690004B08A3004A088A013A20850187014B08CC
:1006A000A3004A088A013A2008001030870085011B
:1006B0004F08A3004E088A013A2005308500153006
:1006C00087004F08A3004E088A013A2002308500B7
:1006D0002A3087004F08A3004E088A013A200800FC
:02400E00FC3F75
:00000001FF
