:020000040000FA
:10000000AD2800380319A828A8002008840021186A
:100010008317A001A101A81B15280008A000A81C97
:10002000A828840A0008A100A8281A200005031D9A
:10003000A00AA82800308A0028080739223E0318A1
:100040008A0A820001340234043408341034203423
:1000500040348034210820040319A00A8030201A7B
:10006000A1062019A106A018A106210DA00DA10D21
:10007000A828A301A200FF30A207031CA307031CAA
:10008000A8280330A100DF3047203B28A101E83E2B
:10009000A000A109FC30031C5028A00703184D281C
:1000A000A0076400A10F4D2820185628A01C5A282C
:1000B00000005A280800A20001306628A20006307D
:1000C0006628A20004306628A2000530A800230894
:1000D0002102031D6D28220820020430031801307C
:1000E000031902302805031DFF30A828A501A4012B
:1000F0001030A600210DA40DA50D2208A40223088E
:10010000031C230FA50203188C282208A407230828
:100110000318230FA5070310A00DA10DA60B7A2825
:100120002008A8281030A800A101A001A70CA60C47
:10013000031CA0282208A00723080318230FA107E7
:10014000A10CA00CA50CA40CA80B96282408A82888
:10015000831303138312640008008316870185014B
:1001600083123808A0003908A1008A012A2020083B
:10017000B8002108B9003808A0003908A1000830EB
:10018000A200A3018A0176202408BA002508BB003A
:1001900001303A07BC003B080318013EBD000130A6
:1001A000A000A1013D08A3003C088A0164208A1137
:1001B000031D5529F00A0319F10A7008A0007108FF
:1001C000A100A30105308A015E208A11031DEA28DF
:1001D000F001F10171088A11031D1F297008A200A6
:1001E000043C8A11031C1F290310220DA2078A1147
:1001F0000921A000A20A8A110921A100A20A8A11DC
:1002000009218A0101202008CE002108CF008A118F
:100210001F2901308A002208103E03188A0A820032
:100220005A3400340034FA34003400346434003476
:100230000034323400340034963400340034720810
:10024000A0007308A1008A012A202008F2002108DA
:10025000F3007208A0007308A1000A30A200A301F5
:100260008A0176202408F4002508F500013074077F
:10027000F60075080318013EF700C001C1014008EF
:10028000A0004108A1007708A30076088A015B203E
:100290008A11031D53298A115823C00A0319C10A60
:1002A0008A11031D3F298A11562B0230A000A1019B
:1002B0003D08A3003C088A0164208A11031DC0295F
:1002C000EC0A0319ED0A6C08A0006D08A100A30157
:1002D00005308A015E208A11031D7029EC01ED01B1
:1002E0006D088A11031DA8296C08A200053C8A111B
:1002F000031CA8290310220DA2078A118F21A00038
:10030000A20A8A118F21A100A20A8A118F218A01D3
:1003100001202008D2002108D3008A11A829013029
:100320008A002208963E03188A0A8200503400345C
:100330000034C83400340034783400340034963447
:100340000034003446340034003432340034003495
:100350000130C800C9014808A0004908A100A30154
:1003600005308A015B208A11031DBE298A119B2357
:10037000C80A0319C90A8A11031DAB298A11562B11
:100380000330A000A1013D08A3003C088A016420BD
:100390008A11031D472AF40A0319F50A7408A000FC
:1003A0007508A100A30105308A015E208A11031D92
:1003B000DB29F401F50175088A11031D102A740860
:1003C000A200043C8A11031C102A0310220DA2076C
:1003D0008A11FA21A000A20A8A11FA21A100A20A18
:1003E0008A11FA218A0101202008D4002108D500B1
:1003F0008A11102A02308A002208013E03188A0A54
:1004000082005A3400340034FA3400340034643446
:100410000034003432340034003496340034003474
:100420007808A0007908A1008A012A202008F80095
:100430002108F9007808A0007908A1000A30A2007C
:10044000A3018A0176202408FA002508FB00013068
:100450007A07FC007B080318013EFD000130CA004A
:10046000CB014A08A0004B08A1007D08A3007C082E
:100470008A015B208A11031D452A8A11B423CA0A06
:100480000319CB0A8A11031D312A8A11562B043015
:10049000A000A1013D08A3003C088A0164208A1144
:1004A000031DA72A9030D8000130D9005808A000B9
:1004B0005908A100A30196308A0161208A11031D09
:1004C000712A8A11C5233230D80200308A110318EC
:1004D0006D2A013E8A110318712AD9028A11031864
:1004E000562A9630D800D9015808A0005908A10012
:1004F000A3015A308A0161208A11031D8F2A8A11B3
:10050000C5230A30D80200308A1103188B2A013E15
:100510008A1103188F2AD9028A110318742A01300C
:10052000C400C5014408A0004508A100A30107308C
:100530008A015B208A11031DA52A8A11C523C40ADA
:100540000319C50A8A11031D922A8A11562B0530F8
:10055000A000A1013D08A3003C088A0164208A1183
:10056000031DCA2A0130C800C9014808A000490873
:10057000A100A30104308A015B208A11031DC82A4F
:100580008A11E023C80A0319C90A8A11031DB52A72
:100590008A11562B0630A000A1013D08A3003C089B
:1005A0008A0164208A11031D352BFE0A0319FF0AF4
:1005B0007E08A0007F08A100A30105308A015E200B
:1005C0008A11031DE52AFE01FF017F088A11031D20
:1005D0001D2B7E08A200053C8A11031C1D2B031055
:1005E000220DA2078A110423A000A20A8A11042363
:1005F000A100A20A8A1104238A0101202008DA003E
:100600002108DB008A111D2B03308A0022080B3ED3
:1006100003188A0A820050340034003478340034DD
:1006200000346434003400343C3400340034463444
:10063000003400344134003400340130CA00CB01AE
:100640004A08A0004B08A100A30105308A015B20E5
:100650008A11031D332B8A113524CA0A0319CB0AC8
:100660008A11031D202B8A11562B0730A000A101EF
:100670003D08A3003C088A0164208A11031D562B03
:100680000130CC00CD014C08A0004D08A100A30111
:1006900004308A015B208A11031D562B8A114E24D7
:1006A000CC0A0319CD0A8A11031D432B8A01B128F4
:1006B00085018701043087004F08A3004E088A0196
:1006C0003A20023087004F08A3004E088A013A20E2
:1006D000013087004F08A3004E088A013A202030DD
:1006E00087004F08A3004E088A013A201030870087
:1006F0004F08A3004E088A013A20083087004F08AF
:10070000A3004E088A013A200430850087014F0873
:10071000A3004E088A013A20023085004F08A3004A
:100720004E088A013A20013085004F08A3004E0888
:100730008A013A2008000730870085015308A3008A
:1007400052088A013A208501383087005308A300F7
:1007500052088A013A200730850087015308A30018
:1007600052088A013A200800073085003F30870090
:100770005508A30054088A013A20850187015508CD
:10078000A30054088A013A20080010308700850130
:100790005908A30058088A013A2005308500153011
:1007A00087005908A30058088A013A2002308500C2
:1007B0002A3087005908A30058088A013A20080007
:1007C0006208A0006308A1008A012A202008E20034
:1007D0002108E3006208A0006308A1001030A20015
:1007E0000430A3008A017620E4002108E5000A30E5
:1007F000A600A7016408A2006508A3008A01922050
:10080000D0002508D10014305007E6005108031825
:10081000013EE7006408A0006508A1000930A200BD
:10082000A3018A017620E8002108E9000A30A60029
:10083000A7016408A2006508A3008A019220EA00CB
:100840002508EB0068088500640887006708A30096
:1008500066088A013A20073085003F3087006B0820
:10086000A3006A088A013A20080005308700850144
:100870004F08A3004E088A013A20103087008501F6
:100880004F08A3004E088A013A20870105308500F1
:100890004F08A3004E088A013A2008005D08A30013
:1008A0005C088A013A200430870085015D08A300B6
:1008B0005C088A013A200230870085015D08A300A8
:1008C0005C088A013A200130870085015D08A30099
:1008D0005C088A013A200830870085015D08A30082
:1008E0005C088A013A208701013085005D08A30079
:1008F0005C088A013A2087010A3085005D08A30060
:100900005C088A013A208701643085005D08A300F5
:100910005C088A013A202030870085015D08A30029
:080920005C088A013A2008007E
:02400E00FC3F75
:00000001FF
