:020000040000FA
:100000002E28A101E83EA000A109FC30031C0B280A
:10001000A00703180828A0076400A10F08282018CB
:100020001128A01C1528000015280800A200013086
:100030001928A80023082102031D202822082002D5
:10004000043003180130031902302805031DFF3066
:100050002928831303138312640008008316870181
:10006000850183121430B800B901BC01BD013C0800
:10007000A0003D08A1001330A30088308A0116209B
:100080008A11031D66283C08883CBA003D08031C01
:10009000013E133CBB000730870085013D08A100ED
:1000A0003C088A010220870185013B08A1003A082B
:1000B0008A0102203808BC0739080318013E8A115A
:1000C00003186628BD078A11031C3728BC01BD012F
:1000D0003C08A0003D08A1001330A30088308A012D
:1000E00016208A11031D98283C08883CBA003D0858
:1000F000031C013E133CBB003F30870085013D08D7
:10010000A1003C088A0102200730870085013B08D6
:10011000A1003A088A0102203808BC0739080318F0
:10012000013E8A1103189828BD078A11031C68280C
:10013000BC01BD013C08A0003D08A1001330A30094
:1001400088308A0116208A11031DCB283C08883C80
:10015000BA003D08031C013E133CBB003F30870042
:10016000073085003D08A1003C088A0102203F308D
:10017000870085013B08A1003A088A01022038085F
:10018000BC0739080318013E8A110318CB28BD07A4
:0A0190008A11031C9A288A01322804
:02400E00FC3F75
:00000001FF
