:020000040000FA
:100000005A28003803195528A80020088400211810
:100010008317A001A101A81B15280008A000A81C97
:100020005528840A0008A10055281A200005031D40
:10003000A00A552800308A0028080739223E0318F4
:100040008A0A820001340234043408341034203423
:1000500040348034A101E83EA000A109FC30031C1B
:100060003428A00703183128A0076400A10F312805
:1000700020183A28A01C3E2800003E280800A200B4
:1000800001304528A20006304528A8002308210297
:10009000031D4C28220820020430031801300319E4
:1000A00002302805031DFF305528831303138312E4
:1000B0006400080083168701850183128316A80156
:1000C000A9018312831628088312A0008316290829
:1000D0008312A100A30109308A013F208A11031D68
:1000E0008A29F80A0319F90A7808A0007908A100FA
:1000F000A30105308A0142208A11031D8128F801DD
:10010000F90179088A11031DB6287808A200043C79
:100110008A11031CB6280310220DA2078A11A02001
:10012000A000A20A8A11A020A100A20A8A11A02080
:100130008A0101202008C0002108C1008A11B628C8
:1001400000308A002208A73E03188A0A820064341D
:1001500000340034963400340034C83400340034A1
:100160002C3401340034C834003400348316290898
:100170008A118312031DDC2883162808093C8A1182
:100180008312031CDC288A11C920BC00BD018A111E
:10019000DC2800308A00831628088312D23E031818
:1001A0008A0A82000034063407340F341F343F3487
:1001B0000034003400340034831629088A11831275
:1001C000031D022983162808093C8A118312031C87
:1001D00002298A11EF20B800B9018A1102290030E2
:1001E0008A00831628088312F83E03188A0A8200C0
:1001F000003400340034043406340734003400344E
:1002000000340034831629088A118312031D28291B
:1002100083162808093C8A118312031C28298A1195
:100220001521BE00BF018A11282901308A008316DA
:10023000280883121E3E03188A0A82000034003404
:10024000063407340F341F343F3400340034003494
:10025000831629088A118312031D4E298316280844
:10026000093C8A118312031C4E298A113B21BA00D2
:10027000BB018A114E2901308A0083162808831297
:10028000443E03188A0A82000034003400340034EB
:10029000003400340034003400340034EC01ED014B
:1002A0006C08A0006D08A1001F30A30040308A0137
:1002B0003F208A11031D82296C08403CE2006D0832
:1002C000031C013E1F3CE3003C0887003808850002
:1002D0006D08A1006C088A012B203E0887003A08AF
:1002E00085006308A10062088A012B204008EC0702
:1002F00041080318013E8A1103188229ED078A116B
:10030000031C50298316A80A0319A90A8A1183120B
:08031000031D62288A015E282A
:02400E00FC3F75
:00000001FF
