:020000040000FA
:100000002828A301A200FF30A207031CA307031C9A
:1000100023280330A100DF300F200328A101E83E90
:10002000A000A109FC30031C1828A00703181528FC
:10003000A0076400A10F152820181E28A01C222844
:1000400000002228080083130313831264000800B1
:1000500083168701850183122830BA00BB01043062
:10006000870085013B08A3003A088A01022002307C
:10007000870085013B08A3003A088A01022001306D
:10008000870085013B08A3003A088A010220083056
:10009000870085013B08A3003A088A0102208701F6
:1000A000013085003B08A3003A088A01022087013D
:1000B0000A3085003B08A3003A088A010220870124
:1000C000643085003B08A3003A088A0102202030F2
:1000D000870085013B08A3003A088A0102208A01B3
:0200E0002F28C7
:02400E00FC3F75
:00000001FF
