:020000040000FA
:100000002E28A101E83EA000A109FC30031C0B280A
:10001000A00703180828A0076400A10F08282018CB
:100020001128A01C1528000015280800A200013086
:100030001928A80023082102031D202822082002D5
:10004000043003180130031902302805031DFF3066
:100050002928831303138312640008008316870181
:10006000850183120730BC00BD013F30C600C701C7
:100070000130D000D101CE01CF014E08A0004F08C1
:10008000A100A30104308A0116208A11031DBC2897
:100090004F088A11031D63284E08043C8A11031C73
:1000A00063288A115720B800B9018A1163280030EB
:1000B0008A004E085E3E03188A0A8200003400342B
:1000C0000434023401344F088A11031D7E284E087F
:1000D000043C8A11031C7E288A117220C200C301CD
:1000E0008A117E2800308A004E08793E03188A0A59
:1000F0008200043422341134083400344F088A1149
:10010000031D99284E08043C8A11031C99288A1162
:100110008D20BA00BB018A11992800308A004E0850
:10012000943E03188A0A82000034043402340134F5
:1001300000344F088A11031DB4284E08043C8A116C
:10014000031CB4288A11A820C400C5018A11B42850
:1001500000308A004E08AF3E03188A0A820022341B
:1001600011340834003404348A11BD20CE0A031936
:10017000CF0A8A11031D3D280800D401D501540877
:10018000A0005508A1001F30A30040308A011620AE
:100190008A11031DF1285408403CD2005508031C65
:1001A000013E1F3CD300480887003E0885005508E3
:1001B000A10054088A0102204A08870040088500EF
:1001C0005308A10052088A0102204C08D4074D08A8
:1001D0000318013E8A110318F128D5078A11031C60
:0401E000BF2808002C
:02400E00FC3F75
:00000001FF
