:020000040000FA
:100000003E28A301A200FF30A207031CA307031C84
:1000100039280330A100DF300F200328A101E83E7A
:10002000A000A109FC30031C1828A00703181528FC
:10003000A0076400A10F152820181E28A01C222844
:10004000000022280800A20001302928A200043064
:100050002928A80023082102031D30282208200295
:10006000043003180130031902302805031DFF3046
:100070003928831303138312640008008316870151
:1000800085018312C830BC00BD013C08A0003D08BA
:10009000A100A30164308A0126208A11031D602873
:1000A0008A1177201430BC0200308A1103185C28B2
:1000B000013E8A1103186028BD028A1103184528E1
:1000C0000130B800B9013808A0003908A100A30127
:1000D00007308A0123208A11031D76288A11772090
:1000E000B80A0319B90A8A11031D632808005030A1
:1000F000BA00BB010130870085013B08A3003A0824
:100100008A0102200A3087003B08A3003A088A01CE
:10011000022014308700013085003B08A3003A0814
:100120008A01022020308700023085003B08A300AE
:100130003A088A0102208701043085003B08A300A9
:100140003A088A0102200430870085013B08A30099
:100150003A088A010220223087003B08A3003A08AF
:100160008A01022011308700043085003B08A3007B
:100170003A088A01022008308700023085003B08D7
:10018000A3003A088A0102208701013085003B085C
:10019000A3003A088A0102208701043085003B0849
:1001A000A3003A088A01022020308700023085002F
:1001B0003B08A3003A088A0102201430870001306E
:1001C00085003B08A3003A088A0102200A30870014
:1001D00085013B08A3003A088A010220013087000C
:1001E0003B08A3003A088A010220870101308500FC
:1001F0003B08A3003A088A01022008308700023039
:1002000085003B08A3003A088A01022011308700CC
:10021000043085003B08A3003A088A0102202230FE
:10022000870085013B08A3003A088A0102200430B8
:0E02300087003B08A3003A088A01022008005C
:02400E00FC3F75
:00000001FF
