:020000040000FA
:100000006728003803196228A800200884002118F6
:100010008317A001A101A81B15280008A000A81C97
:100020006228840A0008A10062281A200005031D26
:10003000A00A622800308A0028080739223E0318E7
:100040008A0A820001340234043408341034203423
:1000500040348034A301A200FF30A207031CA30791
:10006000031C62280330A100DF3038202C28A101B6
:10007000E83EA000A109FC30031C4128A00703189A
:100080003E28A0076400A10F3E2820184728A01C86
:100090004B2800004B280800A20001305228A20083
:1000A00006305228A80023082102031D59282208DF
:1000B0002002043003180130031902302805031D03
:1000C000FF30622883130313831264000800831631
:1000D000870185018312BC0A0319BD0A3C08A000F0
:1000E0003D08A100A30105308A014F208A11031D9C
:1000F0007B28BC01BD013D088A11031DB3283C08C3
:10010000A200053C8A11031CB3280310220DA2078C
:100110008A119A20A000A20A8A119A20A100A20A9C
:100120008A119A208A0101202008BA002108BB0008
:100130008A11B32800308A002208A13E03188A0AD7
:100140008200503400340034783400340034643495
:10015000003400343C34003400344634003400347D
:100160004134003400340130B800B9013808A0002F
:100170003908A100A30105308A014C208A11031D12
:10018000C9288A11CB20B80A0319B90A8A11031D9C
:10019000B6288A016B280530870085013B08A3003B
:1001A0003A088A012B201030870085013B08A30004
:1001B0003A088A012B208701053085003B08A300FF
:0801C0003A088A012B20080017
:02400E00FC3F75
:00000001FF
