:020000040000FA
:100000002E28A101E83EA000A109FC30031C0B280A
:10001000A00703180828A0076400A10F08282018CB
:100020001128A01C1528000015280800A200013086
:100030001928A80023082102031D202822082002D5
:10004000043003180130031902302805031DFF3066
:100050002928831303138312640008008316870181
:10006000850183128316A801A9018312831628082B
:100070008312A000831629088312A100A30109306E
:100080008A0116208A11031D1929831629088A114D
:100090008312031D6B2883162808093C8A118312DA
:1000A000031C6B288A115820BC00BD018A116B28E3
:1000B00000308A00831628088312613E03188A0ADA
:1000C00082003F343F343F343F343F343F343F3489
:1000D0003F343F343F34831629088A118312031DAD
:1000E000912883162808093C8A118312031C912841
:1000F0008A117E20B800B9018A11912800308A0047
:10010000831628088312873E03188A0A8200073460
:100110000734073407340734073407340734073407
:100120000734831629088A118312031DB728831602
:100130002808093C8A118312031CB7288A11A420BD
:10014000BE00BF018A11B72800308A008316280834
:100150008312AD3E03188A0A82000034043402344C
:100160000134083410342034003400340034831651
:1001700029088A118312031DDD2883162808093CEB
:100180008A118312031CDD288A11CA20BA00BB0120
:100190008A11DD2800308A00831628088312D33E96
:1001A00003188A0A8200003400340034003400341A
:1001B000003400340434023401348430EC00033061
:1001C000ED00C601C7014608A0004708A100A30131
:1001D000FA308A0116208A11031D11296C08403C4F
:1001E000E2006D08031C013E1F3CE3003C08870051
:1001F000380885006D08A1006C088A0102203E08BD
:1002000087003A0885006308A10062088A0102207D
:100210001430C6078A11031CE328C70A8A11031D7C
:10022000E3288316A80A0319A90A8A118312031D59
:0202300036286E
:02400E00FC3F75
:00000001FF
