:020000040000FA
:100000003E28A301A200FF30A207031CA307031C84
:1000100039280330A100DF300F200328A101E83E7A
:10002000A000A109FC30031C1828A00703181528FC
:10003000A0076400A10F152820181E28A01C222844
:10004000000022280800A20001302928A200043064
:100050002928A80023082102031D30282208200295
:10006000043003180130031902302805031DFF3046
:100070003928831303138312640008008316870151
:10008000850183129030BA000130BB003A08A0000D
:100090003B08A100A30196308A0126208A11031D86
:1000A00061288A1197203230BA0200308A11031871
:1000B0005D28013E8A1103186128BB028A110318CA
:1000C00046289630BA00BB013A08A0003B08A100C0
:1000D000A3015A308A0126208A11031D7F288A1124
:1000E00097200A30BA0200308A1103187B28013E9B
:1000F0008A1103187F28BB028A1103186428013073
:10010000B800B9013808A0003908A100A3010730E0
:100110008A0123208A11031D95288A119720B80A85
:100120000319B90A8A11031D82288A014228103056
:10013000870085013B08A3003A088A0102200530A8
:100140008500153087003B08A3003A088A01022089
:10015000023085002A3087003B08A3003A088A0154
:040160000220080071
:02400E00FC3F75
:00000001FF
